:020000040000FA
:100000000C9462000C94DE140C94B7140C948A00C7
:100010000C948A000C948A000C948A000C948A0038
:100020000C948A000C948A000C948A000C948A0028
:100030000C948A000C9424160C948A000C948A0068
:100040000C946D140C948A000C948A000C948A0011
:100050000C948A000C948A000C948A000C948A00F8
:100060000C9405150C948A00000000002400270061
:100070002A0000000000250028002B0000000000DE
:1000800023002600290004040404040404040202DA
:100090000202020203030303030301020408102007
:1000A0004080010204081020010204081020000012
:1000B0000008000201000003040700000000000027
:1000C0000000331711241FBECFEFD8E0DEBFCDBF35
:1000D00012E0A0E0B1E0E4E6FFE302C005900D927B
:1000E000A63AB107D9F724E0A6EAB2E001C01D9212
:1000F000A23EB207E1F710E0C2E6D0E004C02197CB
:10010000FE010E94961FC136D107C9F70E946417ED
:100110000C94B01F0C940000EF92FF920F931F936A
:10012000CF93DF93EC017B018A01E881F9810480A0
:10013000F581E02D0995FB82EA821E870D87E88113
:10014000F9810284F385E02DCE010995009701F134
:100150009C0150E040E060E472E48FE090E00E9497
:10016000511F8091C0049091C104A091C204B0912C
:10017000C30482179307A407B50710F4DA01C90175
:100180008093C0049093C104A093C204B093C304AD
:10019000CE01DF91CF911F910F91FF90EF900895C5
:1001A000833081F028F4813099F08230A9F00895ED
:1001B0008730A9F08830C9F08430B1F48091800094
:1001C0008F7D03C0809180008F7780938000089599
:1001D00084B58F7784BD089584B58F7DFBCF8091E2
:1001E000B0008F778093B00008958091B0008F7D2C
:1001F000F9CFCF93DF93282F30E0F901E255FF4F7D
:100200008491F901E656FF4FD491F901EA57FF4F67
:10021000C491CC23A1F081110E94D000EC2FF0E01A
:10022000EE0FFF1FE458FF4FA591B491EC91ED2321
:1002300081E090E009F480E0DF91CF91089580E0C3
:1002400090E0FACF1F93CF93DF93282F30E0F9018E
:10025000E255FF4F8491F901E656FF4FD491F90121
:10026000EA57FF4FC491CC23A9F0162F81110E94A9
:10027000D000EC2FF0E0EE0FFF1FEE58FF4FA591DE
:10028000B4918FB7F894EC91111108C0D095DE238A
:10029000DC938FBFDF91CF911F910895DE2BF8CFB4
:1002A000CF93DF9390E0FC01E656FF4F24918A57ED
:1002B0009F4FFC0184918823C9F090E0880F991F1B
:1002C000FC01E859FF4FA591B491FC01EE58FF4F96
:1002D000C591D49161110DC09FB7F8948C91209570
:1002E00082238C938881282328839FBFDF91CF911D
:1002F0000895623051F49FB7F8943C91822F809515
:1003000083238C93E8812E2BEFCF8FB7F894EC9159
:100310002E2B2C938FBFEACF8E50806480937C006D
:1003200080917A00806480937A0080917A0086FDC3
:10033000FCCF809178009091790008953FB7F894B0
:100340008091A9049091AA04A091AB04B091AC044F
:1003500026B5A89B05C02F3F19F00196A11DB11D20
:100360003FBFBA2FA92F982F8827BC01CD01620F5C
:10037000711D811D911D42E0660F771F881F991F17
:100380004A95D1F708954F925F926F927F929F9214
:10039000AF92BF92CF92DF92EF92FF920F931F9393
:1003A000CF93DF9300D01F92CDB7DEB7D090BD04BE
:1003B0008091C0049091C104A091C204B091C30483
:1003C000892B8A2B8B2BD9F00E949E010091B904B6
:1003D0001091BA042091BB043091BC04601B710BD6
:1003E000820B930B0091C0041091C1042091C204B0
:1003F0003091C3046017710782079307C8F20E9407
:100400009E016093B9047093BA048093BB049093E7
:10041000BC04E091C804F091C904309759F04091B0
:10042000C4045091C5046091C6047091C7048D2D19
:100430000995D82EE090B704F090B8044D2C512CBB
:10044000712C612CE114F10409F459C0D7011C96F8
:10045000CC901C978091BE049091BF048436910586
:1004600010F41C961C92D701ED91FC91A280B380F0
:1004700019821A821B82DD2079F1F701369610E08D
:1004800000E02191222319F19280992001F130E0BE
:1004900050E040E02F5F3F4F4F4F5F4FC301B2012D
:1004A0000E940B1F9B01AC01892D90E0B0E0A0E001
:1004B000BC01CD016F5F7F4F8F4F9F4F0E940B1F7D
:1004C000A1E0B0E0AC0FBD1FA00FB11F8C930F5F78
:1004D0001F4F03301105A9F609811A812B81F701FD
:1004E0004585568562817381C701F5010995D7015C
:1004F0001C96CC921C971496ED90FC90A3CF809103
:10050000B5049091B6049C012F5F3F4F3093B60421
:100510002093B50449970CF44AC08FB7F894209102
:10052000AD043091AE044091AF045091B0048FBF40
:100530008091B1049091B204A091B304B091B4043D
:10054000281B390B4A0B5B0B21F421E030E040E023
:1005500050E0E091B504F091B60488EE93E0E89F96
:10056000B001E99F700DF89F700D1124072E000C4B
:10057000880B990B0E942F1F3093BF042093BE0459
:100580001092B6041092B5042FB7F8948091AD0480
:100590009091AE04A091AF04B091B0042FBF8093AE
:1005A000B1049093B204A093B304B093B4040F9039
:1005B0000F900F90DF91CF911F910F91FF90EF90CF
:1005C000DF90CF90BF90AF909F907F906F905F90A3
:1005D0004F9008958F929F92AF92BF92CF92DF92E9
:1005E000EF92FF924B015C010E949E016B017C0126
:1005F0000E949E016C197D098E099F09683E734017
:1006000081059105A8F321E0821A9108A108B1089B
:1006100088EEC80E83E0D81EE11CF11C8114910401
:10062000A104B10429F7FF90EF90DF90CF90BF9025
:10063000AF909F908F900895089508950895AF9278
:10064000BF92CF92DF92EF92FF920F931F93CF93BF
:10065000DF936C017B018B01040F151FEB015E0121
:10066000AE18BF08C017D10759F06991D601ED91B6
:10067000FC910190F081E02DC6010995892B79F755
:10068000C501DF91CF911F910F91FF90EF90DF9007
:10069000CF90BF90AF90089508952091F202260F59
:1006A0003327331F21323105ECF420913B03FC0149
:1006B00090E080E0243069F082E00895A091F20299
:1006C0002191AC014E525D4FA40FB52FB11D2C935B
:1006D0000196861798F38091F202680F6093F202F8
:1006E00080E0089581E0089510923B0381E08093BB
:1006F0003A031092150361E082E10E94220161E059
:1007000083E10E942201E9EBF0E080818E7F80830B
:1007100080818D7F808388E48093B80085E4809316
:10072000BC000895CF93DF9391E09093D10288238A
:10073000B9F0C091B800D091BA008091BC008A7B1A
:100740008093BC0060E082E10E94220160E083E1CE
:100750000E9422010E947403D093BA00C093B80093
:10076000DF91CF9108950895E091E7038091E6032A
:10077000E81730F4F0E0EF54FD4F808190E00895E9
:100780008FEF9FEF08959091E7038091E6032FEF9D
:100790003FEF981748F4E92FF0E0EF54FD4F208128
:1007A00030E09F5F9093E703C90108958091E603CD
:1007B0009091E703891B990B0895CF92DF92EF92F6
:1007C000FF920F931F93CF93DF937C01CB018A019C
:1007D00020914103222389F0EB016B01C40ED51E49
:1007E000CC15DD0569F06991D701ED91FC9101907F
:1007F000F081E02DC7010995F3CF642F0E944D03CE
:10080000C801DF91CF911F910F91FF90EF90DF9082
:10081000CF900895CF93DF931F92CDB7DEB7698352
:10082000209141032223F9F02091E403203258F073
:1008300021E030E0FC013383228390E080E00F90E0
:10084000DF91CF9108958091E503E82FF0E0EE5B12
:10085000FC4F998190838F5F8093E5038093E4033D
:1008600081E090E0ECCF61E0CE0101960E944D0363
:10087000F7CFCF92DF92EF92FF920F931F93CF9318
:10088000DF93FC01C48121E020934103C093620304
:100890001092E5031092E4038385682B8AEC94E0C0
:1008A0000E940A04D091E403D13208F092C00E9461
:1008B0009E016B017C0180913B03811165C082E048
:1008C00080933B0381E080933A038FEF8093390359
:1008D00010923803D0933703A2E4B3E0E7E1F3E0EA
:1008E00080E0D81385C01092160380911603CC0FB8
:1008F000C82BC093160380911503813009F07CC08A
:10090000109215030E949E016B017C0180911603D9
:100910008093BB0080913D0390913E03A0913F03E3
:10092000B0914003892B8A2B8B2B99F00E949E015A
:1009300000913D0310913E0320913F03309140030D
:100940006C197D098E099F090617170728073907B3
:10095000E0F18091BC0083FDD9CF85EC8093BC0091
:100960000E949E016B017C0180913B03823009F45F
:1009700045C0809139038F3F61F180913903803206
:1009800041F18091390325C080913D0390913E0350
:10099000A0913F03B0914003892B8A2B8B2B09F444
:1009A0008ACF0E949E0100913D0310913E03209149
:1009B0003F03309140036C197D098E099F0906178A
:1009C00017072807390708F076CF80913C030E946B
:1009D00092031092E5031092E40310924103DF9119
:1009E000CF911F910F91FF90EF90DF90CF900895DE
:1009F0009D9191938F5F75CF85EEB0CF80913D0330
:100A000090913E03A0913F03B0914003892B8A2B24
:100A10008B2B09F4A9CF0E949E0100913D031091F8
:100A20003E0320913F03309140036C197D098E09EC
:100A30009F09061717072807390708F095CFC5CF74
:100A400090E080E008950F931F93CF93DF93209160
:100A5000B0022F5F322F37703093B00220FF2BC0CF
:100A600020E831FD2064347009F02062205FFC0131
:100A7000EC01239600E011E06485662329F070E024
:100A8000C8010E941B1F6F5F6187322F369F030EC4
:100A900030E0311D1124311110C01682662311F08F
:100AA000615061873196EC17FD0731F7DF91CF91E7
:100AB0001F910F91089520E0D4CF31503683EECFAF
:100AC000CF93DF93EC010E949E0179836883DF91CD
:100AD000CF910895CF93DF93EC010E949E0128816E
:100AE0003981621B730B6A307105B8F3DF91CF91C6
:100AF00008954F925F927F928F929F92AF92BF9292
:100B0000CF92DF92EF92FF920F931F93CF93DF93D9
:100B1000EB010F962C010E946A05F8948A819B8153
:100B2000181619060CF0CDC1E881F9816BB1862E3B
:100B3000689480F83BB13E7F3BB9DA848F812D2DDC
:100B4000281B822F2F834F85042E000C550BAA8162
:100B5000BB817D85FC84EE847F5FF394E3949E816A
:100B60009884B984AB841181C12C6C2D0C2D2C2D53
:100B70002181112788942111280F08F42FEF8195E6
:100B8000889470FD120F1795889471FD120F1795B8
:100B9000889472FD120F1795889473FD120F1795A4
:100BA000889474FD120F1795889475FD120F179590
:100BB000889476FD120F1795889477FD120F17957C
:100BC0008894622F7111612F8D0D162F002C8BB818
:100BD00000C017FF3BB920816627889400C000C081
:100BE000002C3BB92111290F00C0002C8BB800C08C
:100BF00016FF3BB908F42FEF9195889400C000C010
:100C0000002C3BB9F0FC620F00C0002C8BB800C078
:100C100015FF3BB967958894F1FC620F00C000C0D6
:100C2000002C3BB96795889400C0002C8BB800C09D
:100C300014FF3BB9F2FC620F6795889400C000C0B6
:100C4000002C3BB9F3FC620F00C0002C8BB800C035
:100C500013FF3BB967958894F4FC620F00C000C095
:100C6000002C3BB96795889400C0002C8BB800C05D
:100C700012FF3BB9F5FC620F6795889400C000C075
:100C8000002C3BB9F6FC620F00C0002C8BB800C0F2
:100C900011FF3BB967958894F7FC620F00C000C054
:100CA000002C3BB96795889400C0002C8BB800C01D
:100CB00010FF3BB9122FF110162F9B0D00C000C082
:100CC000002C3BB900C000C0002C8BB800C017FF3F
:100CD0003BB922816627889400C000C0002C3BB934
:100CE0002111290D00C0002C8BB800C016FF3BB9A4
:100CF00008F42FEFE40FF51F00C000C0002C3BB933
:100D0000E0FC620F00C0002C8BB800C015FF3BB99F
:100D100067958894E1FC620F00C000C0002C3BB9CD
:100D20006795889400C0002C8BB800C014FF3BB9B5
:100D3000E2FC620F6795889400C000C0002C3BB9AC
:100D4000E3FC620F00C0002C8BB800C013FF3BB95E
:100D500067958894E4FC620F00C000C0002C3BB98A
:100D60006795889400C0002C8BB800C012FF3BB977
:100D7000E5FC620F6795889400C000C0002C3BB969
:100D8000E6FC620F00C0002C8BB800C011FF3BB91D
:100D900067958894E7FC620F00C000C0002C3BB947
:100DA0006795889400C0002C8BB800C010FF3BB939
:100DB000122FE110162F919400C000C0002C3BB9F7
:100DC0009A0C00C000C08BB800C017FF3BB921814E
:100DD0006627889400C000C0002C3BB92111280F61
:100DE00000C0002C8BB800C016FF3BB908F42FEFF1
:100DF0008195889400C000C0002C3BB970FD620F43
:100E000000C0002C8BB800C015FF3BB967958894D3
:100E100071FD620F00C000C0002C3BB9679588943B
:100E200000C0002C8BB800C014FF3BB972FD620FEC
:100E30006795889400C000C0002C3BB973FD620F19
:100E400000C0002C8BB800C013FF3BB96795889495
:100E500074FD620F00C000C0002C3BB967958894F8
:100E600000C0002C8BB800C012FF3BB975FD620FAB
:100E70006795889400C000C0002C3BB976FD620FD6
:100E800000C0002C8BB800C011FF3BB96795889457
:100E900077FD620F00C000C0002C3BB967958894B5
:100EA00000C0002C8BB800C010FF3BB9122F71118D
:100EB000162F8D0D00C000C0002C3BB9119709F012
:100EC00086CE4A815B8120EE31E0DA010E94701FFC
:100ED000DC01CB0164E0B695A795979587956A9557
:100EE000D1F730E020E0B901EAE94E9F040E611D20
:100EF0005E9F600D711D1124650F711D860F971F78
:100F0000A11DB11D893E43E09407A105B10508F478
:100F100034C0885E9340A109B10942E0B695A79517
:100F2000979587954A95D1F747E0849F080E211D34
:100F3000949F200D311D1124290F311D6091AF02A6
:100F400070E0860F971F280F391F8091AD04909194
:100F5000AE04A091AF04B091B004432F5527840F85
:100F6000951FA11DB11D8093AD049093AE04A09375
:100F7000AF04B093B0042093AF027894C201DF9124
:100F8000CF911F910F91FF90EF90DF90CF90BF9086
:100F9000AF909F908F907F905F904F900C946005E2
:100FA00080E991E00895509A08954F925F927F9260
:100FB0008F929F92AF92BF92CF92DF92EF92FF9269
:100FC0000F931F93CF93DF93EB010F962C010E9499
:100FD0006A05F8948A819B81181619060CF0CDC118
:100FE000E881F9816BB1862E689481F83BB13D7F31
:100FF0003BB9DA848F812D2D281B822F2F834F85BB
:10100000042E000C550BAA81BB817D85FC84EE84E7
:101010007F5FF394E3949E819884B984AB841181BB
:10102000C12C6C2D0C2D2C2D218111278894211180
:10103000280F08F42FEF8195889470FD120F1795F3
:10104000889471FD120F1795889472FD120F1795F1
:10105000889473FD120F1795889474FD120F1795DD
:10106000889475FD120F1795889476FD120F1795C9
:10107000889477FD120F17958894622F7111612F54
:101080008D0D162F002C8BB800C017FF3BB92081A7
:101090006627889400C000C0002C3BB92111290F9D
:1010A00000C0002C8BB800C016FF3BB908F42FEF2E
:1010B0009195889400C000C0002C3BB9F0FC620FF1
:1010C00000C0002C8BB800C015FF3BB96795889411
:1010D000F1FC620F00C000C0002C3BB967958894FA
:1010E00000C0002C8BB800C014FF3BB9F2FC620FAB
:1010F0006795889400C000C0002C3BB9F3FC620FD8
:1011000000C0002C8BB800C013FF3BB967958894D2
:10111000F4FC620F00C000C0002C3BB967958894B6
:1011200000C0002C8BB800C012FF3BB9F5FC620F69
:101130006795889400C000C0002C3BB9F6FC620F94
:1011400000C0002C8BB800C011FF3BB96795889494
:10115000F7FC620F00C000C0002C3BB96795889473
:1011600000C0002C8BB800C010FF3BB9122FF1104B
:10117000162F9B0D00C000C0002C3BB900C000C062
:10118000002C8BB800C017FF3BB9228166278894DA
:1011900000C000C0002C3BB92111290D00C0002C5B
:1011A0008BB800C016FF3BB908F42FEFE40FF51F12
:1011B00000C000C0002C3BB9E0FC620F00C0002C56
:1011C0008BB800C015FF3BB967958894E1FC620FAE
:1011D00000C000C0002C3BB96795889400C0002C6B
:1011E0008BB800C014FF3BB9E2FC620F679588948E
:1011F00000C000C0002C3BB9E3FC620F00C0002C13
:101200008BB800C013FF3BB967958894E4FC620F6C
:1012100000C000C0002C3BB96795889400C0002C2A
:101220008BB800C012FF3BB9E5FC620F679588944C
:1012300000C000C0002C3BB9E6FC620F00C0002CCF
:101240008BB800C011FF3BB967958894E7FC620F2B
:1012500000C000C0002C3BB96795889400C0002CEA
:101260008BB800C010FF3BB9122FE110162F9194DC
:1012700000C000C0002C3BB99A0C00C000C08BB865
:1012800000C017FF3BB921816627889400C000C0C9
:10129000002C3BB92111280F00C0002C8BB800C0D6
:1012A00016FF3BB908F42FEF8195889400C000C069
:1012B000002C3BB970FD620F00C0002C8BB800C041
:1012C00015FF3BB96795889471FD620F00C000C09F
:1012D000002C3BB96795889400C0002C8BB800C0E7
:1012E00014FF3BB972FD620F6795889400C000C07F
:1012F000002C3BB973FD620F00C0002C8BB800C0FE
:1013000013FF3BB96795889474FD620F00C000C05D
:10131000002C3BB96795889400C0002C8BB800C0A6
:1013200012FF3BB975FD620F6795889400C000C03D
:10133000002C3BB976FD620F00C0002C8BB800C0BA
:1013400011FF3BB96795889477FD620F00C000C01C
:10135000002C3BB96795889400C0002C8BB800C066
:1013600010FF3BB9122F7111162F8D0D00C000C058
:10137000002C3BB9119709F086CE4A815B8120EEA3
:1013800031E0DA010E94701FDC01CB0164E0B69508
:10139000A795979587956A95D1F730E020E0B90138
:1013A000EAE94E9F040E611D5E9F600D711D1124C0
:1013B000650F711D860F971FA11DB11D893E43E06A
:1013C0009407A105B10508F434C0885E9340A109D3
:1013D000B10942E0B695A795979587954A95D1F7BB
:1013E00047E0849F080E211D949F200D311D11247C
:1013F000290F311D6091AF0270E0860F971F280FF3
:10140000391F8091AD049091AE04A091AF04B091CA
:10141000B004432F5527840F951FA11DB11D809344
:10142000AD049093AE04A093AF04B093B0042093A6
:10143000AF027894C201DF91CF911F910F91FF907D
:10144000EF90DF90CF90BF90AF909F908F907F9064
:101450005F904F900C946005519A08954F925F925F
:101460007F928F929F92AF92BF92CF92DF92EF9234
:10147000FF920F931F93CF93DF93EB010F962C01F5
:101480000E946A05F8948A819B81181619060CF04F
:10149000CDC1E881F9816BB1862E689483F83BB1A8
:1014A000377F3BB9DA848F812D2D281B822F2F8324
:1014B0004F85042E000C550BAA81BB817D85FC84D1
:1014C000EE847F5FF394E3949E819884B984AB8427
:1014D0001181C12C6C2D0C2D2C2D2181112788946C
:1014E0002111280F08F42FEF8195889470FD120FB9
:1014F0001795889471FD120F1795889472FD120F3D
:101500001795889473FD120F1795889474FD120F28
:101510001795889475FD120F1795889476FD120F14
:101520001795889477FD120F17958894622F711183
:10153000612F8D0D162F002C8BB800C017FF3BB903
:1015400020816627889400C000C0002C3BB921117F
:10155000290F00C0002C8BB800C016FF3BB908F45F
:101560002FEF9195889400C000C0002C3BB9F0FC8F
:10157000620F00C0002C8BB800C015FF3BB9679507
:101580008894F1FC620F00C000C0002C3BB9679545
:10159000889400C0002C8BB800C014FF3BB9F2FC4B
:1015A000620F6795889400C000C0002C3BB9F3FC23
:1015B000620F00C0002C8BB800C013FF3BB96795C9
:1015C0008894F4FC620F00C000C0002C3BB9679502
:1015D000889400C0002C8BB800C012FF3BB9F5FC0A
:1015E000620F6795889400C000C0002C3BB9F6FCE0
:1015F000620F00C0002C8BB800C011FF3BB967958B
:101600008894F7FC620F00C000C0002C3BB96795BE
:10161000889400C0002C8BB800C010FF3BB9122F7B
:10162000F110162F9B0D00C000C0002C3BB900C06C
:1016300000C0002C8BB800C017FF3BB92281662781
:10164000889400C000C0002C3BB92111290D00C0B6
:10165000002C8BB800C016FF3BB908F42FEFE40F45
:10166000F51F00C000C0002C3BB9E0FC620F00C0B9
:10167000002C8BB800C015FF3BB967958894E1FC3E
:10168000620F00C000C0002C3BB96795889400C071
:10169000002C8BB800C014FF3BB9E2FC620F6795C9
:1016A000889400C000C0002C3BB9E3FC620F00C06E
:1016B000002C8BB800C013FF3BB967958894E4FCFD
:1016C000620F00C000C0002C3BB96795889400C031
:1016D000002C8BB800C012FF3BB9E5FC620F679588
:1016E000889400C000C0002C3BB9E6FC620F00C02B
:1016F000002C8BB800C011FF3BB967958894E7FCBC
:10170000620F00C000C0002C3BB96795889400C0F0
:10171000002C8BB800C010FF3BB9122FE110162F20
:10172000919400C000C0002C3BB99A0C00C000C0CE
:101730008BB800C017FF3BB921816627889400C091
:1017400000C0002C3BB92111280F00C0002C8BB821
:1017500000C016FF3BB908F42FEF8195889400C0B4
:1017600000C0002C3BB970FD620F00C0002C8BB88C
:1017700000C015FF3BB96795889471FD620F00C0EA
:1017800000C0002C3BB96795889400C0002C8BB832
:1017900000C014FF3BB972FD620F6795889400C0CA
:1017A00000C0002C3BB973FD620F00C0002C8BB849
:1017B00000C013FF3BB96795889474FD620F00C0A9
:1017C00000C0002C3BB96795889400C0002C8BB8F2
:1017D00000C012FF3BB975FD620F6795889400C089
:1017E00000C0002C3BB976FD620F00C0002C8BB806
:1017F00000C011FF3BB96795889477FD620F00C068
:1018000000C0002C3BB96795889400C0002C8BB8B1
:1018100000C010FF3BB9122F7111162F8D0D00C0A3
:1018200000C0002C3BB9119709F086CE4A815B813C
:1018300020EE31E0DA010E94701FDC01CB0164E090
:10184000B695A795979587956A95D1F730E020E0F2
:10185000B901EAE94E9F040E611D5E9F600D711D86
:101860001124650F711D860F971FA11DB11D893EA3
:1018700043E09407A105B10508F434C0885E9340A5
:10188000A109B10942E0B695A795979587954A9524
:10189000D1F747E0849F080E211D949F200D311D34
:1018A0001124290F311D6091AF0270E0860F971F40
:1018B000280F391F8091AD049091AE04A091AF0420
:1018C000B091B004432F5527840F951FA11DB11D62
:1018D0008093AD049093AE04A093AF04B093B00492
:1018E0002093AF027894C201DF91CF911F910F91A5
:1018F000FF90EF90DF90CF90BF90AF909F908F9030
:101900007F905F904F900C946005539A08954F928A
:101910005F927F928F929F92AF92BF92CF92DF920F
:10192000EF92FF920F931F93CF93DF93EB010F96EC
:101930002C010E946A05F8948A819B811816190669
:101940000CF0CDC1E881F9816BB1862E689484F8E2
:101950003BB13F7E3BB9DA848F812D2D281B822F2E
:101960002F834F85042E000C550BAA81BB817D85EA
:10197000FC84EE847F5FF394E3949E819884B98421
:10198000AB841181C12C6C2D0C2D2C2D21811127A4
:1019900088942111280F08F42FEF8195889470FD09
:1019A000120F1795889471FD120F1795889472FD88
:1019B000120F1795889473FD120F1795889474FD74
:1019C000120F1795889475FD120F1795889476FD60
:1019D000120F1795889477FD120F17958894622F30
:1019E0007111612F8D0D162F002C8BB800C017FFC1
:1019F0003BB920816627889400C000C0002C3BB909
:101A00002111290F00C0002C8BB800C016FF3BB974
:101A100008F42FEF9195889400C000C0002C3BB9CA
:101A2000F0FC620F00C0002C8BB800C015FF3BB962
:101A300067958894F1FC620F00C000C0002C3BB990
:101A40006795889400C0002C8BB800C014FF3BB988
:101A5000F2FC620F6795889400C000C0002C3BB96F
:101A6000F3FC620F00C0002C8BB800C013FF3BB921
:101A700067958894F4FC620F00C000C0002C3BB94D
:101A80006795889400C0002C8BB800C012FF3BB94A
:101A9000F5FC620F6795889400C000C0002C3BB92C
:101AA000F6FC620F00C0002C8BB800C011FF3BB9E0
:101AB00067958894F7FC620F00C000C0002C3BB90A
:101AC0006795889400C0002C8BB800C010FF3BB90C
:101AD000122FF110162F9B0D00C000C0002C3BB937
:101AE00000C000C0002C8BB800C017FF3BB922819A
:101AF0006627889400C000C0002C3BB92111290D35
:101B000000C0002C8BB800C016FF3BB908F42FEFC3
:101B1000E40FF51F00C000C0002C3BB9E0FC620FD1
:101B200000C0002C8BB800C015FF3BB967958894A6
:101B3000E1FC620F00C000C0002C3BB9679588949F
:101B400000C0002C8BB800C014FF3BB9E2FC620F50
:101B50006795889400C000C0002C3BB9E3FC620F7D
:101B600000C0002C8BB800C013FF3BB96795889468
:101B7000E4FC620F00C000C0002C3BB9679588945C
:101B800000C0002C8BB800C012FF3BB9E5FC620F0F
:101B90006795889400C000C0002C3BB9E6FC620F3A
:101BA00000C0002C8BB800C011FF3BB9679588942A
:101BB000E7FC620F00C000C0002C3BB96795889419
:101BC00000C0002C8BB800C010FF3BB9122FE110F1
:101BD000162F919400C000C0002C3BB99A0C00C095
:101BE00000C08BB800C017FF3BB9218166278894DD
:101BF00000C000C0002C3BB92111280F00C0002CF0
:101C00008BB800C016FF3BB908F42FEF819588947C
:101C100000C000C0002C3BB970FD620F00C0002C5A
:101C20008BB800C015FF3BB96795889471FD620FB2
:101C300000C000C0002C3BB96795889400C0002C00
:101C40008BB800C014FF3BB972FD620F6795889492
:101C500000C000C0002C3BB973FD620F00C0002C17
:101C60008BB800C013FF3BB96795889474FD620F71
:101C700000C000C0002C3BB96795889400C0002CC0
:101C80008BB800C012FF3BB975FD620F6795889451
:101C900000C000C0002C3BB976FD620F00C0002CD4
:101CA0008BB800C011FF3BB96795889477FD620F30
:101CB00000C000C0002C3BB96795889400C0002C80
:101CC0008BB800C010FF3BB9122F7111162F8D0D6C
:101CD00000C000C0002C3BB9119709F086CE4A81A4
:101CE0005B8120EE31E0DA010E94701FDC01CB0144
:101CF00064E0B695A795979587956A95D1F730E0FA
:101D000020E0B901EAE94E9F040E611D5E9F600D5F
:101D1000711D1124650F711D860F971FA11DB11D27
:101D2000893E43E09407A105B10508F434C0885EFC
:101D30009340A109B10942E0B695A795979587957B
:101D40004A95D1F747E0849F080E211D949F200DEE
:101D5000311D1124290F311D6091AF0270E0860FF3
:101D6000971F280F391F8091AD049091AE04A09168
:101D7000AF04B091B004432F5527840F951FA11DC8
:101D8000B11D8093AD049093AE04A093AF04B093C3
:101D9000B0042093AF027894C201DF91CF911F91DC
:101DA0000F91FF90EF90DF90CF90BF90AF909F90FA
:101DB0008F907F905F904F900C946005549A089597
:101DC0004F925F927F928F929F92AF92BF92CF92EB
:101DD000DF92EF92FF920F931F93CF93DF93EB016C
:101DE0000F962C010E946A05F8948A819B8118162F
:101DF00019060CF0CDC1E881F9816BB1862E68948B
:101E000085F83BB13F7D3BB9DA848F812D2D281BAE
:101E1000822F2F834F85042E000C550BAA81BB8186
:101E20007D85FC84EE847F5FF394E3949E819884A7
:101E3000B984AB841181C12C6C2D0C2D2C2D2181EA
:101E4000112788942111280F08F42FEF8195889489
:101E500070FD120F1795889471FD120F17958894D5
:101E600072FD120F1795889473FD120F17958894C1
:101E700074FD120F1795889475FD120F17958894AD
:101E800076FD120F1795889477FD120F1795889499
:101E9000622F7111612F8D0D162F002C8BB800C091
:101EA00017FF3BB920816627889400C000C0002C32
:101EB0003BB92111290F00C0002C8BB800C016FFC0
:101EC0003BB908F42FEF9195889400C000C0002C16
:101ED0003BB9F0FC620F00C0002C8BB800C015FFAE
:101EE0003BB967958894F1FC620F00C000C0002CDC
:101EF0003BB96795889400C0002C8BB800C014FFD4
:101F00003BB9F2FC620F6795889400C000C0002CBA
:101F10003BB9F3FC620F00C0002C8BB800C013FF6C
:101F20003BB967958894F4FC620F00C000C0002C98
:101F30003BB96795889400C0002C8BB800C012FF95
:101F40003BB9F5FC620F6795889400C000C0002C77
:101F50003BB9F6FC620F00C0002C8BB800C011FF2B
:101F60003BB967958894F7FC620F00C000C0002C55
:101F70003BB96795889400C0002C8BB800C010FF57
:101F80003BB9122FF110162F9B0D00C000C0002C82
:101F90003BB900C000C0002C8BB800C017FF3BB994
:101FA00022816627889400C000C0002C3BB9211113
:101FB000290D00C0002C8BB800C016FF3BB908F4F7
:101FC0002FEFE40FF51F00C000C0002C3BB9E0FC70
:101FD000620F00C0002C8BB800C015FF3BB967959D
:101FE0008894E1FC620F00C000C0002C3BB96795EB
:101FF000889400C0002C8BB800C014FF3BB9E2FCF1
:10200000620F6795889400C000C0002C3BB9E3FCC8
:10201000620F00C0002C8BB800C013FF3BB967955E
:102020008894E4FC620F00C000C0002C3BB96795A7
:10203000889400C0002C8BB800C012FF3BB9E5FCAF
:10204000620F6795889400C000C0002C3BB9E6FC85
:10205000620F00C0002C8BB800C011FF3BB9679520
:102060008894E7FC620F00C000C0002C3BB9679564
:10207000889400C0002C8BB800C010FF3BB9122F11
:10208000E110162F919400C000C0002C3BB99A0CAF
:1020900000C000C08BB800C017FF3BB92181662784
:1020A000889400C000C0002C3BB92111280F00C04B
:1020B000002C8BB800C016FF3BB908F42FEF8195B8
:1020C000889400C000C0002C3BB970FD620F00C0B6
:1020D000002C8BB800C015FF3BB96795889471FD43
:1020E000620F00C000C0002C3BB96795889400C007
:1020F000002C8BB800C014FF3BB972FD620F6795CE
:10210000889400C000C0002C3BB973FD620F00C072
:10211000002C8BB800C013FF3BB96795889474FD01
:10212000620F00C000C0002C3BB96795889400C0C6
:10213000002C8BB800C012FF3BB975FD620F67958C
:10214000889400C000C0002C3BB976FD620F00C02F
:10215000002C8BB800C011FF3BB96795889477FDC0
:10216000620F00C000C0002C3BB96795889400C086
:10217000002C8BB800C010FF3BB9122F7111162F25
:102180008D0D00C000C0002C3BB9119709F086CE20
:102190004A815B8120EE31E0DA010E94701FDC0190
:1021A000CB0164E0B695A795979587956A95D1F789
:1021B00030E020E0B901EAE94E9F040E611D5E9F08
:1021C000600D711D1124650F711D860F971FA11DD4
:1021D000B11D893E43E09407A105B10508F434C060
:1021E000885E9340A109B10942E0B695A7959795FD
:1021F00087954A95D1F747E0849F080E211D949F4B
:10220000200D311D1124290F311D6091AF0270E0A6
:10221000860F971F280F391F8091AD049091AE044F
:10222000A091AF04B091B004432F5527840F951FA0
:10223000A11DB11D8093AD049093AE04A093AF0493
:10224000B093B0042093AF027894C201DF91CF9194
:102250001F910F91FF90EF90DF90CF90BF90AF90C4
:102260009F908F907F905F904F900C946005559A4F
:1022700008956F927F928F92CF92DF92EF92FF92AA
:102280000F931F93CF93DF93CDB7DEB762970FB64F
:10229000F894DEBF0FBECDBF6C017A013801822EEB
:1022A000DC011C962C91CA0157FF04C0882799278E
:1022B000841B950B7A8369839C838B839E838D8398
:1022C0006D867E868F86213049F5CE0101960E946B
:1022D000230583E0888B1A8A198AF7FE02C08DEFE6
:1022E000888BD601ED91FC910484F585E02DBE012B
:1022F0006F5F7F4FC601099562960FB6F894DEBFF7
:102300000FBECDBFDF91CF911F910F91FF90EF9046
:10231000DF90CF908F907F906F9008951C861B86E2
:102320001A86198618861F82D4CFEF92FF920F93D8
:102330001F93CF93DF93CDB7DEB762970FB6F894B4
:10234000DEBF0FBECDBF7C01DC011C968C917A8371
:1023500069835C834B835E834D830D871E872F8744
:102360008130F9F4CE0101960E942305188A1A8A59
:10237000198AD701ED91FC910484F585E02DBE0109
:102380006F5F7F4FC701099562960FB6F894DEBF65
:102390000FBECDBFDF91CF911F910F91FF90EF90B6
:1023A00008951C861B861A86198618861F82DECF22
:1023B000809195048823D1F02091E8033091E903BE
:1023C0004091EA035091EB0360919E0470919F0449
:1023D0008091A0049091A1040E94C91C60939E0466
:1023E00070939F048093A0049093A104089590E0BB
:1023F00080E00895FC018585968508950F931F93CD
:10240000CF93DF9300D01F92CDB7DEB7AB01198217
:102410001A821B82DC01ED91FC910190F081E02D8C
:1024200000E010E020E0BE016F5F7F4F09950F9044
:102430000F900F90DF91CF911F910F910895FC01A4
:1024400086E191E091838083138212828FEF8683ED
:102450008783808781878287838781E08487168648
:102460001586158214828091B7049091B804892B47
:1024700021F4F093B804E093B704A091A802B091BE
:10248000A902109721F01596FC93EE931497F09300
:10249000A902E093A8020895FC0101900020E9F749
:1024A0003197AF01481B590BBC0186ED94E00C94A9
:1024B0001F038F929F92AF92BF920F931F93CF9360
:1024C000DF93CDB7DEB7A1970FB6F894DEBF0FBE8E
:1024D000CDBF19A2423008F44AE08E010F5D1F4FB4
:1024E000842E912CB12CA12CA50194010E942F1FA8
:1024F000E62FB901CA01EA30F4F4E05DD801EE93A9
:102500008D01232B242B252B79F790E080E0109769
:1025100019F0CD010E944C12A1960FB6F894DEBFBF
:102520000FBECDBFDF91CF911F910F91BF90AF90A4
:102530009F908F900895E95CE1CF0F931F93CF9305
:102540008C01C62F0E9439046C2F6460C8010E9460
:1025500039046C2F6B7FC8010E94390483EC90E032
:102560000197F1F7CF911F910F9108950F931F934A
:10257000CF93DF938C01D62FC42F607F642B0E94F2
:102580009D1280E1D89FB00111246C2BC801DF910E
:10259000CF911F910F910C949D12CF93DF93CDB7E4
:1025A000DEB728970FB6F894DEBF0FBECDBF98E018
:1025B000EAE0F1E0DE01119601900D929A95E1F7C3
:1025C0009091DF04961710F46FEF690F262F30E01B
:1025D000220F331F41E050E04C0F5D1F240F351FC9
:1025E000F9016081680F606840E086ED94E028960C
:1025F0000FB6F894DEBF0FBECDBFDF91CF910C9424
:10260000B61241E00E94B61281E090E00895CF92A8
:10261000DF92EF92FF926C01990FEE08FF08F7FE30
:1026200016C041E06DE286ED94E00E94B612662786
:102630007727CB016C197D098E099F094AE00E941A
:1026400059120196FF90EF90DF90CF9008954AE0E5
:10265000C701B601FF90EF90DF90CF900C94591214
:102660004F925F926F927F928F929F92AF92BF92A2
:10267000CF92DF92EF92FF920F931F93CF936B0154
:102680007C01742EAC019B010E94061F882399F0E7
:102690008AE991E0CF911F910F91FF90EF90DF9029
:1026A000CF90BF90AF909F908F907F906F905F90F2
:1026B0004F900C944C1246015701E894B7F82FEF55
:1026C0003FEF4FE75FE7C501B4010E94061F81118C
:1026D0000DC02FEF3FEF4FE75FE7C501B4010E9448
:1026E000351D18161CF48EE991E0D4CF2FEF3FEF83
:1026F0004FE75FE4C701B6010E94941E18161CF450
:1027000082EA91E0C7CF2FEF3FEF4FE75FECC701C1
:10271000B6010E94351D87FDF3CF20E030E0A9010E
:10272000C701B6010E94351D10E000E087FF0CC014
:1027300041E06DE286ED94E00E94B612F7FAF09463
:10274000F7F8F09401E010E0C0E060E070E080E0B5
:102750009FE37C1641F020E030E040E251E40E942B
:102760003A1DCF5FF6CFA70196010E94C91C4B010D
:102770005C010E94B31D2B013C014AE00E945912EA
:10278000080F191FCC23C9F1C301B2010E94E21D39
:102790009B01AC01C501B4010E94C81C4B015C0146
:1027A00041E06EE286ED94E00E94B6120F5F1F4F8B
:1027B000C15018F120E030E040E251E4C501B4011D
:1027C0000E94991E2B013C010E94B31D4B01B12CAC
:1027D000A12C4AE0C501B4010E945912080F191F2B
:1027E000C501B4010E94E21D9B01AC01C301B2010D
:1027F0000E94C81C4B015C01DBCFC801CF911F9127
:102800000F91FF90EF90DF90CF90BF90AF909F908F
:102810008F907F906F905F904F900895EF92FF920E
:102820000F931F93CF93DF938C01C0E07801D0E02A
:102830006C2F8D2F0E94CD12F70161917F0141E035
:1028400086ED94E00E94B612DF5FD43189F70C5E0A
:102850001F4FCF5FC43051F7DF91CF911F910F9180
:10286000FF90EF9008950E94AB1F85ED8093BC0010
:1028700080913D0390913E03A0913F03B0914003AE
:102880000796A11DB11D23E0B695A795979587954D
:102890002A95D1F72091BC0024FD03C010923B0380
:1028A000089540913D0350913E0360913F03709124
:1028B0004003452B462B472B69F30097A105B10533
:1028C00041F02AE22A95F1F700C00197A109B10968
:1028D000E1CF80913C030C9492031F920F920FB6AC
:1028E0000F9211242F933F938F939F93AF93BF9396
:1028F0008091AD049091AE04A091AF04B091B0046A
:102900003091A80423E0230F2D3758F50196A11D1F
:10291000B11D2093A8048093AD049093AE04A093BE
:10292000AF04B093B0048091A9049091AA04A0913F
:10293000AB04B091AC040196A11DB11D8093A90414
:102940009093AA04A093AB04B093AC04BF91AF9151
:102950009F918F913F912F910F900FBE0F901F90DD
:10296000189526E8230F0296A11DB11DD2CF1F9204
:102970000F920FB60F9211242F933F934F935F93B3
:102980006F937F938F939F93AF93BF93EF93FF9337
:10299000E0910201F09103010995FF91EF91BF9140
:1029A000AF919F918F917F916F915F914F913F91E7
:1029B0002F910F900FBE0F901F9018951F920F929E
:1029C0000FB60F9211242F933F934F935F936F9302
:1029D0007F938F939F93AF93BF93EF93FF93E09178
:1029E0000001F09101010995FF91EF91BF91AF9125
:1029F0009F918F917F916F915F914F913F912F9117
:102A00000F900FBE0F901F9018951F920F920FB648
:102A10000F9211242F933F934F935F936F937F9364
:102A20008F939F93AF93BF93EF93FF938091B900E0
:102A3000887F803609F44AC0F0F5883209F4A7C0CF
:102A400018F5803109F49BC0B8F4882309F4F9C063
:102A5000883009F494C0FF91EF91BF91AF919F919D
:102A60008F917F916F915F914F913F912F910F9037
:102A70000FBE0F901F901895883109F488C08032DE
:102A800051F78093390314C0803409F49DC040F499
:102A90008033B9F38833F9F68093390385ECB0C0FD
:102AA000803509F485C0883509F496C0883499F6D4
:102AB0000E943514D0CF883909F48CC038F5883796
:102AC00029F050F4883611F0803729F683E080939E
:102AD0003B031092140357C0883809F47BC0803937
:102AE00019F0803809F0B7CF80911403803208F0D4
:102AF00071C0E091140381E08E0F809314038091E4
:102B0000BB00F0E0EC50FD4F80833DC0803B39F0CE
:102B1000E0F4803A09F479C0883A09F09CCF84E067
:102B200080933B031092F3021092F202E091E203D1
:102B3000F091E30309958091F20281110FC081E0C9
:102B40008093F2021092D20209C0803C09F4A6CF11
:102B5000883C09F4A3CF883B09F07DCFE091F302D4
:102B600081E08E0F8093F302F0E0EE52FD4F808102
:102B70008093BB009091F3028091F20229C0809172
:102B800016038093BB0085EC8093BC0064CF9091CA
:102B9000380380913703981758F5E091380381E0A6
:102BA0008E0F80933803F0E0E95EFC4F8081E9CF1F
:102BB000E091380381E08E0F809338038091BB0051
:102BC000F0E0E95EFC4F80839091380380913703F9
:102BD0009817C8F285E8D8CFE091380381E08E0FCE
:102BE000809338038091BB00F0E0E95EFC4F808366
:102BF00080913A0381115CCF81E08093150384EAD0
:102C00008093BC0010923B0326CF85EC8093BC00E0
:102C100010923B0380911403803230F4E09114034E
:102C2000F0E0EC50FD4F10826091140370E0E091F1
:102C3000E003F091E10384EF92E009951092140310
:102C40000ACF1092390334CF1F920F920FB60F9212
:102C500011248F929F92AF92BF92CF92DF92EF9208
:102C6000FF922F933F934F935F936F937F938F9335
:102C70009F93AF93BF93EF93FF938EE090E0909379
:102C80008500809384008091AD029091AE02019600
:102C90009093AE028093AD028091AD029091AE020E
:102CA000029709F052C01092AE021092AD028091CC
:102CB0004C0491E0892780934C04809195048823EB
:102CC00009F45CC080909E0490909F04A090A004A2
:102CD000B090A104209196043091970440919804FB
:102CE00050919904C501B4010E94C81C6B017C017C
:102CF0008092960490929704A0929804B0929904BE
:102D000020E030E0A9010E94351D882309F44FC05E
:102D100020E030E040E451E4C701B6010E94991E72
:102D20006093A2047093A3048093A4049093A504D9
:102D300080919C0490919D0401968C33910509F437
:102D40003FC090939D0480939C048091AB0290912E
:102D5000AC0201969093AC028093AB028091AB02DF
:102D60009091AC020A9751F41092AC021092AB020F
:102D70008091AA0291E089278093AA02FF91EF91A6
:102D8000BF91AF919F918F917F916F915F914F9183
:102D90003F912F91FF90EF90DF90CF90BF90AF9039
:102DA0009F908F900F900FBE0F901F9018951092CC
:102DB000A2041092A3041092A4041092A504B8CF08
:102DC00010929D0410929C0480919A0490919B040F
:102DD000019690939B0480939A04B7CFCF92DF9291
:102DE000EF92FF920F931F93E82FF92F05C0015028
:102DF00011092109310961F1908196239417B9F3E2
:102E000005C0015011092109310911F19081962362
:102E10009413F7CFC12CD12CE12CF12C0AC08FEFE9
:102E2000C81AD80AE80AF80A0C151D052E053F0530
:102E300079F080818623841791F36C2D7D2D8E2D62
:102E40009F2D1F910F91FF90EF90DF90CF900895ED
:102E500060E070E080E090E01F910F91FF90EF90B4
:102E6000DF90CF900895EDEBF4E08FEF8083128236
:102E70001182148613868FEF9FEFDC018783908782
:102E8000A187B287EAECF4E01382128288EE93E025
:102E9000A0E0B0E084839583A683B78380E891E0C7
:102EA00091838083E6EDF4E01382128282E991E05F
:102EB0009183808380E2848384E1808784E08187BA
:102EC000128688E083870895789484B5826084BDF3
:102ED00084B5816084BD85B5826085BD85B581601E
:102EE00085BD80916E00816080936E00109281009C
:102EF0008091810082608093810080918100816057
:102F00008093810080918000816080938000809117
:102F1000B10084608093B1008091B00081608093A3
:102F2000B00080917A00846080937A0080917A006A
:102F3000826080937A0080917A00816080937A0029
:102F400080917A00806880937A001092C10062E0DC
:102F500089E00E94500162E088E00E94500162E036
:102F600087E00E94500162E08AE00E94500162E026
:102F70008BE00E94500162E08CE00E94500162E010
:102F80008DE00E94500180917403811111C083E68D
:102F900093E00E941F12109273031092720386E254
:102FA00091E0909364038093630381E080937403C2
:102FB00040E150E06CEE73E083E693E00E948C0009
:102FC00080918D03811111C08CE793E00E941F1244
:102FD00010928C0310928B0388E391E090937D0311
:102FE00080937C0381E080938D0340E150E06CE1AD
:102FF00074E08CE793E00E948C008091A60381111D
:1030000011C085E993E00E941F121092A50310924F
:10301000A4038AE491E0909396038093950381E062
:103020008093A60348E050E06DE774E085E993E003
:103030000E948C008091BF03811111C08EEA93E041
:103040000E941F121092BE031092BD038CE591E006
:103050009093AF038093AE0381E08093BF0348E079
:1030600050E065E674E08EEA93E00E948C00809167
:10307000D803811111C087EC93E00E941F121092B7
:10308000D7031092D6038EE691E09093C803809305
:10309000C70381E08093D80348E050E06DE474E01A
:1030A00087EC93E00E948C00CCEED3E0188219826A
:1030B0001A820E94C301239624E0CC31D207B1F7D3
:1030C00061E086E00E94500160E086E00E942201FB
:1030D0001092E7031092E6031092E5031092E403C6
:1030E0000E9474038CE193E09093E3038093E203E6
:1030F0008DE193E09093E1038093E0031092DB0471
:103100008091DF04823018F098E09093DB04909176
:10311000E004992339F0813029F48091DB04846044
:103120008093DB0462E370E080E090E00E94EA02BA
:103130006091E10486ED94E00E94390468EE73E04A
:1031400080E090E00E94EA0260E386ED94E00E9455
:103150009D120BE416E4C8010197F1F760E386EDD8
:1031600094E00E949D12C8010197F1F760E386ED9B
:1031700094E00E949D1283E592E00197F1F760E2EE
:1031800086ED94E00E949D126091DB04606240E055
:1031900086ED94E00E94B61284E08093DC0440E067
:1031A0006CE086ED94E00E94B61240E061E086EDAE
:1031B00094E00E94B6120BE31FE1C8010197F1F7FA
:1031C00082E08093DD0440E066E086ED94E00E94BA
:1031D000B61240E062E086ED94E00E94B612C801AB
:1031E0000197F1F786EA91E00E940E145FE7C52E81
:1031F0005AE6D52E5CEBE52E5EE3F52E63EC862ECB
:1032000065EF962E68EAA62E6EE3B62E76EF472E71
:1032100078E2572E7CE9672E7EE3772E8BE00E94C2
:10322000F900892BC1F41092950487EF91E00E9478
:103230000E148BE00E94F900892B09F0BFC0409268
:10324000040150920501609206017092070188E422
:1032500092E00E940E148CE00E94F900892BF1F696
:1032600081E08093950488E492E00E940E14F89423
:103270001092800083E0809381008EE090E0909334
:1032800085008093840080916F00816080936F003F
:10329000789461E081E10E94500160E080E10E9449
:1032A000500123EC35EF48EC50E46091040170913B
:1032B000050180910601909107010E94991E20E06E
:1032C00030E040EC51E40E943A1D6093E8037093B3
:1032D000E9038093EA039093EB0388ED91E19093E7
:1032E00001018093000180916900836080936900EF
:1032F000E89AEE24EA949CE4C92E94E0D92E25E6BF
:10330000A22E24E0B22E3DE7832E34E0932E40E03F
:10331000242E40E0342EFF24FA948EE00E948C018B
:10332000909309018093080189E00E94F900892B9C
:1033300009F461C0809108019091090180399140A0
:103340000CF459C0ECEEF3E0108211821282339635
:10335000CE17DF07C9F70E94C30187E00E94F9007A
:10336000892B09F45EC0809108019091090189358B
:1033700092400CF056C0ECE1F4E01082118212820F
:10338000339624E0EC34F207C1F70E94C30168E2EF
:1033900070E080E090E00E94EA0288E00E94F9007C
:1033A000892B09F455C0EDE4F4E0108211821282F9
:1033B000339624E0E536F207C1F753C08CE00E9453
:1033C000F900892B49F48092040190920501A092A2
:1033D0000601B09207013BCF8DE00E94F900892BD6
:1033E00009F027CFC0920401D0920501E0920601B6
:1033F000F09207012CCF80914C04ECEEF3E088238F
:1034000041F0E082E18212823396CE17DF07C9F7DE
:10341000A2CF1082118212823396CE17DF07C9F72E
:103420009ACF80914C04ECE1F4E0882341F0E082F3
:10343000E18212823396CE16DF06C9F7A6CF10823C
:1034400011821282339684E0EC34F807C1F79DCFE5
:10345000EDE4F4E0E082118212823396AE16BF06EC
:10346000C9F70E94C30168E270E080E090E00E942A
:10347000EA028FE00E948C013C018AE00E94F90080
:10348000892B71F461E086E00E942201E5E6F4E018
:10349000E0821182128233968E169F06C9F712C0FF
:1034A00085E66816710474F760E086E00E942201E8
:1034B000E5E6F4E0108211821282339624E0ED37C3
:1034C000F207C1F70E94C30168E270E080E090E07B
:1034D0000E94EA0260E081E10E94220183E090E024
:1034E0000197F1F761E081E10E94220183E290E01F
:1034F0000197F1F760E081E10E942201EAEAF0E041
:103500006491E6E9F0E08491E82FF0E0EE0FFF1F10
:10351000E458FF4F8591949100E412E42FE030E0ED
:10352000462F0E94EE16611571058105910509F07F
:1035300006C20E94E21D26E933E44BE05DE30E94EF
:10354000991E20E030E040EA51E40E943A1D0E94BA
:10355000AC1D7093A7046093A60461557109643192
:103560007105C0F5F0927D0410927E0410927F04E4
:10357000F0928004109281041092820410928304CD
:10358000109284041092850410928604109287048D
:10359000109288041092890410928A0410928B046D
:1035A00010928C0410928D0410928E0410928F044D
:1035B000109290041092910410929204109293042D
:1035C000109294040E94C30168E270E080E090E0F1
:1035D0000E94EA028091A6049091A7048754910961
:1035E0000A97C0F5F0927D0410927E0410927F0439
:1035F000F09280041092810410928204F09283046D
:103600001092840410928504F0928604109287042C
:10361000109288041092890410928A0410928B04EC
:1036200010928C0410928D0410928E0410928F04CC
:1036300010929004109291041092920410929304AC
:10364000109294040E94C30168E270E080E090E070
:103650000E94EA028091A6049091A704C3970A975A
:10366000C0F5F0927D0410927E0410927F04F092D7
:1036700080041092810410928204F09283041092CC
:10368000840410928504F0928604109287041092AC
:103690008804F092890410928A0410928B04F092AC
:1036A0008C0410928D0410928E0410928F0410924C
:1036B000900410929104109292041092930410922C
:1036C00094040E94C30168E270E080E090E00E94F0
:1036D000EA028091A6049091A704C397C4F5F092E2
:1036E0007D0410927E0410927F04F0928004109268
:1036F000810410928204F092830410928404109248
:103700008504F09286041092870410928804F09247
:10371000890410928A0410928B04F0928C04109207
:103720008D0410928E04F0928F04109290041092E7
:103730009104F092920410929304109294040E94C7
:10374000C30168E270E080E090E00E94EA028091AC
:10375000A6049091A70485369105C4F110927D04CA
:1037600010927E0410927F041092800410928104C3
:1037700010928204109283041092840410928504A3
:103780001092860410928704109288041092890483
:1037900010928A0410928B0410928C0410928D0463
:1037A00010928E0410928F04109290041092910443
:1037B0001092920410929304109294040E94C301F8
:1037C00068E270E080E090E00E94EA026090A60467
:1037D0007090A70462E08DE0F5E66F1671040CF4BA
:1037E000B4C00E94CD1289E992E00E944C12409030
:1037F000A2045090A3046090A4047090A50420E05B
:1038000030E040E251E4C301B2010E94351D60E0A6
:1038100087FFADC08AE00E94CD128EE992E00E943F
:103820004C1260E08BE00E94CD126091A204709176
:10383000A3048091A4049091A50440E00E94301359
:1038400061E08AE00E94CD1220E030E048EC52E4D2
:1038500060919E0470919F048091A0049091A104B6
:103860000E943A1D43E00E94301360909C047090C7
:103870009D0463E08EE02AE0621671040CF07EC0C5
:103880000E94CD1280EA92E00E944C1263E08FE029
:103890000E94CD1280919C0490919D040E94071378
:1038A00063E086E00E94CD1280919A0490919B047F
:1038B0000E9407138DE00E94F900892B11F51092E8
:1038C000A2041092A3041092A4041092A5041092D2
:1038D0009E0410929F041092A0041092A1041092D2
:1038E00096041092970410929804109299041092E2
:1038F0009D0410929C0410929B0410929A041092C2
:1039000095048CE00E94F900892B31F48091950494
:1039100091E08927809395048091950460E081115E
:1039200031C083E10E94CD1282EA92E00E944C12E3
:103930002114310409F4F1CC0E940000EECC6F5F39
:103940007F4F8F4F9F4F9F70F4CD0E94CD12B301D8
:10395000770C880B990B0E94E41D20E030E048ECC6
:1039600052E40E943A1D42E00E94301340CF8AE0A8
:103970000E94CD1240E0C301B20160CF0E94CD127F
:10398000C3018CCF83E10E94CD1284EA92E0CECFB6
:103990005058BB27AA270E94E01C0C945A1E0E9474
:1039A0004C1E38F00E94531E20F039F49F3F19F44A
:1039B00026F40C94491E0EF4E095E7FB0C94431E8C
:1039C000E92F0E946B1E58F3BA176207730784072A
:1039D000950720F079F4A6F50C948D1E0EF4E09571
:1039E0000B2EBA2FA02D0B01B90190010C01CA01B9
:1039F000A0011124FF27591B99F0593F50F4503E64
:103A000068F11A16F040A22F232F342F4427585F55
:103A1000F3CF469537952795A795F0405395C9F76D
:103A20007EF41F16BA0B620B730B840BBAF0915025
:103A3000A1F0FF0FBB1F661F771F881FC2F70EC0C4
:103A4000BA0F621F731F841F48F487957795679597
:103A5000B795F7959E3F08F0B0CF9395880F08F083
:103A60009927EE0F9795879508950E941F1E08F4D9
:103A700081E008950E944E1D0C945A1E0E94531E10
:103A800058F00E944C1E40F029F45F3F29F00C943E
:103A9000431E51110C948E1E0C94491E0E946B1EE5
:103AA00068F39923B1F3552391F3951B550BBB276D
:103AB000AA2762177307840738F09F5F5F4F220FB2
:103AC000331F441FAA1FA9F335D00E2E3AF0E0E8A9
:103AD00032D091505040E695001CCAF72BD0FE2FF3
:103AE00029D0660F771F881FBB1F26173707480787
:103AF000AB07B0E809F0BB0B802DBF01FF2793583F
:103B00005F4F3AF09E3F510578F00C94431E0C94A1
:103B10008E1E5F3FE4F3983ED4F3869577956795C4
:103B2000B795F7959F5FC9F7880F911D9695879573
:103B300097F90895E1E0660F771F881FBB1F621792
:103B400073078407BA0720F0621B730B840BBA0B50
:103B5000EE1F88F7E09508950E94B31D6894B11197
:103B60000C948E1E08950E94731E88F09F5798F043
:103B7000B92F9927B751B0F0E1F0660F771F881F72
:103B8000991F1AF0BA95C9F714C0B13091F00E948C
:103B90008D1EB1E008950C948D1E672F782F882715
:103BA000B85F39F0B93FCCF3869577956795B395B3
:103BB000D9F73EF490958095709561957F4F8F4F22
:103BC0009F4F0895E89409C097FB3EF49095809527
:103BD000709561957F4F8F4F9F4F9923A9F0F92FD3
:103BE00096E9BB279395F695879577956795B79551
:103BF000F111F8CFFAF4BB0F11F460FF1BC06F5F37
:103C00007F4F8F4F9F4F16C0882311F096E911C048
:103C1000772321F09EE8872F762F05C0662371F069
:103C200096E8862F70E060E02AF09A95660F771F7D
:103C3000881FDAF7880F9695879597F90895990F59
:103C40000008550FAA0BE0E8FEEF16161706E80766
:103C5000F907C0F012161306E407F50798F0621B87
:103C6000730B840B950B39F40A2661F0232B242B5C
:103C7000252B21F408950A2609F4A140A6958FEF7B
:103C8000811D811D089597F99F6780E870E060E0CD
:103C900008959FEF80EC089500240A9416161706E5
:103CA00018060906089500240A941216130614062D
:103CB00005060895092E0394000C11F4882352F090
:103CC000BB0F40F4BF2B11F460FF04C06F5F7F4F48
:103CD0008F4F9F4F089557FD9058440F551F59F02F
:103CE0005F3F71F04795880F97FB991F61F09F3FE9
:103CF00079F087950895121613061406551FF2CF12
:103D00004695F1DF08C0161617061806991FF1CF61
:103D100086957105610508940895E894BB27662788
:103D20007727CB0197F908950E941F1E08F48FEFA3
:103D300008950E94AC1E0C945A1E0E944C1E38F02E
:103D40000E94531E20F0952311F00C94431E0C94F6
:103D5000491E11240C948E1E0E946B1E70F3959FB9
:103D6000C1F3950F50E0551F629FF001729FBB2772
:103D7000F00DB11D639FAA27F00DB11DAA1F649F0E
:103D80006627B00DA11D661F829F2227B00DA11DC1
:103D9000621F739FB00DA11D621F839FA00D611D47
:103DA000221F749F3327A00D611D231F849F600D68
:103DB000211D822F762F6A2F11249F5750409AF091
:103DC000F1F088234AF0EE0FFF1FBB1F661F771F1D
:103DD000881F91505040A9F79E3F510580F00C94E8
:103DE000431E0C948E1E5F3FE4F3983ED4F38695F9
:103DF00077956795B795F795E7959F5FC1F7FE2B88
:103E0000880F911D9695879597F908950E941F1E1A
:103E1000880B990B0895DB018F939F930E94771F66
:103E2000BF91AF91A29F800D911DA39F900DB29F56
:103E3000900D1124089597FB072E16F4009407D0D7
:103E400077FD09D00E94821F07FC05D03EF49095B3
:103E500081959F4F0895709561957F4F0895A1E2D8
:103E60001A2EAA1BBB1BFD010DC0AA1FBB1FEE1FF4
:103E7000FF1FA217B307E407F50720F0A21BB30B3F
:103E8000E40BF50B661F771F881F991F1A9469F7BB
:103E900060957095809590959B01AC01BD01CF0117
:103EA0000895052E97FB1EF400940E94681F57FD8D
:103EB00007D00E942F1F07FC03D04EF40C94681FFC
:103EC00050954095309521953F4F4F4F5F4F089546
:103ED00090958095709561957F4F8F4F9F4F089576
:103EE0000E949C1FB7FF0895821B930B08950E94A8
:103EF0009C1FA59F900DB49F900DA49F800D911DB8
:103F000011240895AA1BBB1B51E107C0AA1FBB1FA8
:103F1000A617B70710F0A61BB70B881F991F5A9555
:103F2000A9F780959095BC01CD010895EE0FFF1F74
:103F30000590F491E02D0994A29FB001B39FC001B8
:103F4000A39F700D811D1124911DB29F700D811DC5
:103F50001124911D089581E090E0F8940C94B01F15
:103F6000F894FFCF1E031E03F6289C3E00020000BB
:103F700040001400540000000000331433143314C4
:103F8000FE11FA11F7110000000095113911D30745
:103F9000FE11FA11D00779050000000095113911C2
:103FA0002C0AFE11FA11D007D50700000000951168
:103FB0003911850CFE11FA11D0072E0A00000000FD
:103FC00095113911DE0EFE11FA11D007870C000091
:103FD0000000951139113711FE11FA11D007E00ECA
:103FE000000000000A04DD032005B303D603C30369
:103FF000B4030000000001131F0320054C036E6191
:104000006E00696E66006F7666002050524F49451B
:104010004354204445204449504C4F4D41202020DA
:104020002020484F4455542052414C5543412020B4
:1040300020202043414C43554C41544F522044458D
:1040400020424F524420202050454E545255204289
:10405000494349434C45544120200053656C6563F6
:10406000746965206469616D657472752020203102
:104070002E20442E20726F6174613A203234206900
:104080006E6368322E20442E20726F6174613A2074
:10409000323620696E6368332E20442E20726F61A1
:1040A00074613A20323920696E636800566974651C
:1040B0007A613A2020202020204B6D2F682020207C
:1040C00044697374616E74613A202020202020209E
:1040D0004B6D2020446973742E2073706174653AAF
:1040E0002020202020206D2054696D703A2020204F
:1040F00020206D696E20202020736563002D2D2DFA
:0A4100002D00202020005300520083
:107E0000112484B714BE81FFF0D085E080938100F7
:107E100082E08093C00088E18093C10086E0809377
:107E2000C20080E18093C4008EE0C9D0259A86E02C
:107E300020E33CEF91E0309385002093840096BBD3
:107E4000B09BFECF1D9AA8958150A9F7CC24DD24C4
:107E500088248394B5E0AB2EA1E19A2EF3E0BF2EE7
:107E6000A2D0813461F49FD0082FAFD0023811F036
:107E7000013811F484E001C083E08DD089C08234E0
:107E800011F484E103C0853419F485E0A6D080C0E4
:107E9000853579F488D0E82EFF2485D0082F10E0AE
:107EA000102F00270E291F29000F111F8ED06801E7
:107EB0006FC0863521F484E090D080E0DECF843638
:107EC00009F040C070D06FD0082F6DD080E0C81688
:107ED00080E7D80618F4F601B7BEE895C0E0D1E017
:107EE00062D089930C17E1F7F0E0CF16F0E7DF06D8
:107EF00018F0F601B7BEE89568D007B600FCFDCFD4
:107F0000A601A0E0B1E02C9130E011968C91119780
:107F100090E0982F8827822B932B1296FA010C0160
:107F200087BEE89511244E5F5F4FF1E0A038BF0790
:107F300051F7F601A7BEE89507B600FCFDCF97BE46
:107F4000E89526C08437B1F42ED02DD0F82E2BD052
:107F50003CD0F601EF2C8F010F5F1F4F84911BD097
:107F6000EA94F801C1F70894C11CD11CFA94CF0C13
:107F7000D11C0EC0853739F428D08EE10CD085E9AC
:107F80000AD08FE07ACF813511F488E018D01DD067
:107F900080E101D065CF982F8091C00085FFFCCF94
:107FA0009093C60008958091C00087FFFCCF809118
:107FB000C00084FD01C0A8958091C6000895E0E648
:107FC000F0E098E1908380830895EDDF803219F02E
:107FD00088E0F5DFFFCF84E1DECF1F93182FE3DFCA
:107FE0001150E9F7F2DF1F91089580E0E8DFEE27F6
:047FF000FF270994CA
:027FFE00040479
:00000001FF
