:020000040000FA
:100000000C9462000C948A000C948A000C948A0070
:100010000C948A000C948A000C948A000C948A0038
:100020000C948A000C948A000C948A000C948A0028
:100030000C948A000C94B5150C948A000C948A00D8
:100040000C944C140C948A000C948A000C948A0032
:100050000C948A000C948A000C948A000C948A00F8
:100060000C9496140C948A000000000024002700D1
:100070002A0000000000250028002B0000000008D6
:10008000000201000003040700000000000000005F
:1000900000000000230026002900040404040404D6
:1000A0000404020202020202030303030303010227
:1000B00004081020408001020408102001020408F6
:1000C0001020541611241FBECFEFD8E0DEBFCDBFE5
:1000D00012E0A0E0B1E0E4E1FCE302C005900D9283
:1000E000A634B107D9F724E0A6E4B2E001C01D921E
:1000F000AD37B207E1F710E0C2E6D0E004C02197C7
:10010000FE010E94EE1DC136D107C9F70E94851677
:100110000C94081E0C940000EF92FF920F931F9313
:10012000CF93DF93EC017B018A01E881F9810480A0
:10013000F581E02D0995FB82EA821E870D87E88113
:10014000F9810284F385E02DCE010995009701F134
:100150009C0150E040E060E472E48FE090E00E9497
:10016000A91D80915B0490915C04A0915D04B09105
:100170005E0482179307A407B50710F4DA01C901DA
:1001800080935B0490935C04A0935D04B0935E0441
:10019000CE01DF91CF911F910F91FF90EF900895C5
:1001A000833081F028F4813099F08230A9F00895ED
:1001B0008730A9F08830C9F08430B1F48091800094
:1001C0008F7D03C0809180008F7780938000089599
:1001D00084B58F7784BD089584B58F7DFBCF8091E2
:1001E000B0008F778093B00008958091B0008F7D2C
:1001F000F9CFCF93DF93282F30E0F901E458FF4F78
:100200008491F901E255FF4FD491F901E656FF4F71
:10021000C491CC23A1F081110E94D000EC2FF0E01A
:10022000EE0FFF1FE057FF4FA591B491EC91ED2326
:1002300081E090E009F480E0DF91CF91089580E0C3
:1002400090E0FACF1F93CF93DF93282F30E0F9018E
:10025000E458FF4F8491F901E255FF4FD491F90121
:10026000E656FF4FC491CC23A9F0162F81110E94AE
:10027000D000EC2FF0E0EE0FFF1FEE58FF4FA591DE
:10028000B4918FB7F894EC91111108C0D095DE238A
:10029000DC938FBFDF91CF911F910895DE2BF8CFB4
:1002A000CF93DF9390E0FC01E255FF4F24918656F7
:1002B0009F4FFC0184918823C9F090E0880F991F1B
:1002C000FC01E859FF4FA591B491FC01EE58FF4F96
:1002D000C591D49161110DC09FB7F8948C91209570
:1002E00082238C938881282328839FBFDF91CF911D
:1002F0000895623051F49FB7F8943C91822F809515
:1003000083238C93E8812E2BEFCF8FB7F894EC9159
:100310002E2B2C938FBFEACF8E50806480937C006D
:1003200080917A00806480937A0080917A0086FDC3
:10033000FCCF809178009091790008953FB7F894B0
:100340008091440490914504A0914604B0914704E3
:1003500026B5A89B05C02F3F19F00196A11DB11D20
:100360003FBFBA2FA92F982F8827BC01CD01620F5C
:10037000711D811D911D42E0660F771F881F991F17
:100380004A95D1F708954F925F926F927F929F9214
:10039000AF92BF92CF92DF92EF92FF920F931F9393
:1003A000CF93DF9300D01F92CDB7DEB7D090580423
:1003B00080915B0490915C04A0915D04B0915E0417
:1003C000892B8A2B8B2BD9F00E949E01009154041B
:1003D000109155042091560430915704601B710B05
:1003E000820B930B00915B0410915C0420915D04DF
:1003F00030915E046017710782079307C8F20E946C
:100400009E01609354047093550480935604909316
:100410005704E0916304F0916404309759F04091DF
:100420005F045091600460916104709162048D2DAD
:100430000995D82EE0905204F09053044D2C512C85
:10044000712C612CE114F10409F459C0D7011C96F8
:10045000CC901C978091590490915A048436910550
:1004600010F41C961C92D701ED91FC91A280B380F0
:1004700019821A821B82DD2079F1F701369610E08D
:1004800000E02191222319F19280992001F130E0BE
:1004900050E040E02F5F3F4F4F4F5F4FC301B2012D
:1004A0000E94631D9B01AC01892D90E0B0E0A0E0AB
:1004B000BC01CD016F5F7F4F8F4F9F4F0E94631D27
:1004C000A1E0B0E0AC0FBD1FA00FB11F8C930F5F78
:1004D0001F4F03301105A9F609811A812B81F701FD
:1004E0004585568562817381C701F5010995D7015C
:1004F0001C96CC921C971496ED90FC90A3CF809103
:100500005004909151049C012F5F3F4F3093510450
:100510002093500449970CF44AC08FB7F894209167
:1005200048043091490440914A0450914B048FBFD4
:1005300080914C0490914D04A0914E04B0914F04D1
:10054000281B390B4A0B5B0B21F421E030E040E023
:1005500050E0E0915004F091510488EE93E0E89F60
:10056000B001E99F700DF89F700D1124072E000C4B
:10057000880B990B0E94871D30935A0420935904CD
:1005800010925104109250042FB7F89480914804AF
:1005900090914904A0914A04B0914B042FBF8093DD
:1005A0004C0490934D04A0934E04B0934F040F90CD
:1005B0000F900F90DF91CF911F910F91FF90EF90CF
:1005C000DF90CF90BF90AF909F907F906F905F90A3
:1005D0004F9008958F929F92AF92BF92CF92DF92E9
:1005E000EF92FF924B015C010E949E016B017C0126
:1005F0000E949E016C197D098E099F09683E734017
:1006000081059105A8F321E0821A9108A108B1089B
:1006100088EEC80E83E0D81EE11CF11C8114910401
:10062000A104B10429F7FF90EF90DF90CF90BF9025
:10063000AF909F908F90089508950895AF92BF92C4
:10064000CF92DF92EF92FF920F931F93CF93DF939E
:100650006C017B018B01040F151FEB015E01AE18CD
:10066000BF08C017D10759F06991D601ED91FC91EF
:100670000190F081E02DC6010995892B79F7C5011C
:10068000DF91CF911F910F91FF90EF90DF90CF906E
:10069000BF90AF900895089520919402260F3327BC
:1006A000331F21323105ECF42091DD02FC0190E092
:1006B00080E0243069F082E00895A09194022191B5
:1006C000AC014C585D4FA40FB52FB11D2C93019672
:1006D000861798F380919402680F6093940280E0EB
:1006E000089581E008951092DD0281E08093DC029C
:1006F0001092B70261E082E10E94220161E083E191
:100700000E942201E9EBF0E080818E7F808380816E
:100710008D7F808388E48093B80085E48093BC005B
:100720000895CF93DF9391E0909373028823B9F0FB
:10073000C091B800D091BA008091BC008A7B8093B0
:10074000BC0060E082E10E94220160E083E10E943F
:1007500022010E947303D093BA00C093B800DF91C6
:10076000CF9108950895E091890380918803E81757
:1007700030F4F0E0ED5AFD4F808190E008958FEF66
:100780009FEF089590918903809188032FEF3FEFA9
:10079000981748F4E92FF0E0ED5AFD4F208130E042
:1007A0009F5F90938903C901089580918803909178
:1007B0008903891B990B0895CF92DF92EF92FF92E4
:1007C0000F931F93CF93DF937C01CB018A0120917C
:1007D000E302222389F0EB016B01C40ED51ECC1578
:1007E000DD0569F06991D701ED91FC910190F081EF
:1007F000E02DC7010995F3CF642F0E944C03C80177
:10080000DF91CF911F910F91FF90EF90DF90CF90EC
:100810000895CF93DF931F92CDB7DEB76983209100
:10082000E3022223F9F020918603203258F021E0E0
:1008300030E0FC013383228390E080E00F90DF9171
:10084000CF91089580918703E82FF0E0EC51FD4FA0
:10085000998190838F5F809387038093860381E0E3
:1008600090E0ECCF61E0CE0101960E944C03F7CFFF
:10087000CF92DF92EF92FF920F931F93CF93DF936C
:10088000FC01C48121E02093E302C0930403109291
:100890008703109286038385682B85E694E00E9487
:1008A0000904D0918603D13208F092C00E949E01C3
:1008B0006B017C018091DD02811165C082E0809333
:1008C000DD0281E08093DC028FEF8093DB021092E7
:1008D000DA02D093D902A4EEB2E0E9EBF2E080E0D4
:1008E000D81385C01092B8028091B802CC0FC82BE3
:1008F000C093B8028091B702813009F07CC0109299
:10090000B7020E949E016B017C018091B802809326
:10091000BB008091DF029091E002A091E102B091D2
:10092000E202892B8A2B8B2B99F00E949E01009169
:10093000DF021091E0022091E1023091E2026C1995
:100940007D098E099F090617170728073907E0F167
:100950008091BC0083FDD9CF85EC8093BC000E94C0
:100960009E016B017C018091DD02823009F445C05B
:100970008091DB028F3F61F18091DB02803241F197
:100980008091DB0225C08091DF029091E002A0916E
:10099000E102B091E202892B8A2B8B2B09F48ACFDA
:1009A0000E949E010091DF021091E0022091E1027D
:1009B0003091E2026C197D098E099F09061717070D
:1009C0002807390708F076CF8091DE020E94910354
:1009D00010928703109286031092E302DF91CF9169
:1009E0001F910F91FF90EF90DF90CF9008959D9110
:1009F00091938F5F75CF85EEB0CF8091DF0290919C
:100A0000E002A091E102B091E202892B8A2B8B2BAC
:100A100009F4A9CF0E949E010091DF021091E0022B
:100A20002091E1023091E2026C197D098E099F0943
:100A3000061717072807390708F095CFC5CF90E0AC
:100A400080E008950F931F93CF93DF93209152027C
:100A50002F5F322F37703093520220FF2BC020E8D7
:100A600031FD2064347009F02062205FFC01EC014C
:100A7000239600E011E06485662329F070E0C80148
:100A80000E94731D6F5F6187322F369F030E30E027
:100A9000311D1124311110C01682662311F06150EE
:100AA00061873196EC17FD0731F7DF91CF911F91E8
:100AB0000F91089520E0D4CF31503683EECFCF93FD
:100AC000DF93EC010E949E0179836883DF91CF91CF
:100AD0000895CF93DF93EC010E949E012881398114
:100AE000621B730B6A307105B8F3DF91CF910895E3
:100AF0004F925F927F928F929F92AF92BF92CF92CE
:100B0000DF92EF92FF920F931F93CF93DF93EB014E
:100B10000F962C010E946905F8948A819B81181612
:100B200019060CF0CDC1E881F9816BB1862E68946D
:100B300081F83BB13D7F3BB9DA848F812D2D281B95
:100B4000822F2F834F85042E000C550BAA81BB8169
:100B50007D85FC84EE847F5FF394E3949E8198848A
:100B6000B984AB841181C12C6C2D0C2D2C2D2181CD
:100B7000112788942111280F08F42FEF819588946C
:100B800070FD120F1795889471FD120F17958894B8
:100B900072FD120F1795889473FD120F17958894A4
:100BA00074FD120F1795889475FD120F1795889490
:100BB00076FD120F1795889477FD120F179588947C
:100BC000622F7111612F8D0D162F002C8BB800C074
:100BD00017FF3BB920816627889400C000C0002C15
:100BE0003BB92111290F00C0002C8BB800C016FFA3
:100BF0003BB908F42FEF9195889400C000C0002CF9
:100C00003BB9F0FC620F00C0002C8BB800C015FF90
:100C10003BB967958894F1FC620F00C000C0002CBE
:100C20003BB96795889400C0002C8BB800C014FFB6
:100C30003BB9F2FC620F6795889400C000C0002C9D
:100C40003BB9F3FC620F00C0002C8BB800C013FF4F
:100C50003BB967958894F4FC620F00C000C0002C7B
:100C60003BB96795889400C0002C8BB800C012FF78
:100C70003BB9F5FC620F6795889400C000C0002C5A
:100C80003BB9F6FC620F00C0002C8BB800C011FF0E
:100C90003BB967958894F7FC620F00C000C0002C38
:100CA0003BB96795889400C0002C8BB800C010FF3A
:100CB0003BB9122FF110162F9B0D00C000C0002C65
:100CC0003BB900C000C0002C8BB800C017FF3BB977
:100CD00022816627889400C000C0002C3BB92111F6
:100CE000290D00C0002C8BB800C016FF3BB908F4DA
:100CF0002FEFE40FF51F00C000C0002C3BB9E0FC53
:100D0000620F00C0002C8BB800C015FF3BB967957F
:100D10008894E1FC620F00C000C0002C3BB96795CD
:100D2000889400C0002C8BB800C014FF3BB9E2FCD3
:100D3000620F6795889400C000C0002C3BB9E3FCAB
:100D4000620F00C0002C8BB800C013FF3BB9679541
:100D50008894E4FC620F00C000C0002C3BB967958A
:100D6000889400C0002C8BB800C012FF3BB9E5FC92
:100D7000620F6795889400C000C0002C3BB9E6FC68
:100D8000620F00C0002C8BB800C011FF3BB9679503
:100D90008894E7FC620F00C000C0002C3BB9679547
:100DA000889400C0002C8BB800C010FF3BB9122FF4
:100DB000E110162F919400C000C0002C3BB99A0C92
:100DC00000C000C08BB800C017FF3BB92181662767
:100DD000889400C000C0002C3BB92111280F00C02E
:100DE000002C8BB800C016FF3BB908F42FEF81959B
:100DF000889400C000C0002C3BB970FD620F00C099
:100E0000002C8BB800C015FF3BB96795889471FD25
:100E1000620F00C000C0002C3BB96795889400C0E9
:100E2000002C8BB800C014FF3BB972FD620F6795B0
:100E3000889400C000C0002C3BB973FD620F00C055
:100E4000002C8BB800C013FF3BB96795889474FDE4
:100E5000620F00C000C0002C3BB96795889400C0A9
:100E6000002C8BB800C012FF3BB975FD620F67956F
:100E7000889400C000C0002C3BB976FD620F00C012
:100E8000002C8BB800C011FF3BB96795889477FDA3
:100E9000620F00C000C0002C3BB96795889400C069
:100EA000002C8BB800C010FF3BB9122F7111162F08
:100EB0008D0D00C000C0002C3BB9119709F086CE03
:100EC0004A815B8120EE31E0DA010E94C81DDC011D
:100ED000CB0164E0B695A795979587956A95D1F76C
:100EE00030E020E0B901EAE94E9F040E611D5E9FEB
:100EF000600D711D1124650F711D860F971FA11DB7
:100F0000B11D893E43E09407A105B10508F434C042
:100F1000885E9340A109B10942E0B695A7959795DF
:100F200087954A95D1F747E0849F080E211D949F2D
:100F3000200D311D1124290F311D6091510270E0E7
:100F4000860F971F280F391F8091480490914904FC
:100F5000A0914A04B0914B04432F5527840F951F4D
:100F6000A11DB11D8093480490934904A0934A04A5
:100F7000B0934B04209351027894C201DF91CF913A
:100F80001F910F91FF90EF90DF90CF90BF90AF90A7
:100F90009F908F907F905F904F900C945F0580E9B9
:100FA00091E00895519A08954F925F927F928F92A7
:100FB0009F92AF92BF92CF92DF92EF92FF920F93E8
:100FC0001F93CF93DF93EB010F962C010E946905CD
:100FD000F8948A819B81181619060CF0CDC1E8811E
:100FE000F9816BB1862E689482F83BB13B7F3BB9A7
:100FF000DA848F812D2D281B822F2F834F85042E7D
:10100000000C550BAA81BB817D85FC84EE847F5F3B
:10101000F394E3949E819884B984AB841181C12CAC
:101020006C2D0C2D2C2D2181112788942111280F36
:1010300008F42FEF8195889470FD120F179588940E
:1010400071FD120F1795889472FD120F17958894F1
:1010500073FD120F1795889474FD120F17958894DD
:1010600075FD120F1795889476FD120F17958894C9
:1010700077FD120F17958894622F7111612F8D0DD6
:10108000162F002C8BB800C017FF3BB920816627B4
:10109000889400C000C0002C3BB92111290F00C06A
:1010A000002C8BB800C016FF3BB908F42FEF9195C8
:1010B000889400C000C0002C3BB9F0FC620F00C057
:1010C000002C8BB800C015FF3BB967958894F1FCE4
:1010D000620F00C000C0002C3BB96795889400C027
:1010E000002C8BB800C014FF3BB9F2FC620F67956F
:1010F000889400C000C0002C3BB9F3FC620F00C014
:10110000002C8BB800C013FF3BB967958894F4FCA2
:10111000620F00C000C0002C3BB96795889400C0E6
:10112000002C8BB800C012FF3BB9F5FC620F67952D
:10113000889400C000C0002C3BB9F6FC620F00C0D0
:10114000002C8BB800C011FF3BB967958894F7FC61
:10115000620F00C000C0002C3BB96795889400C0A6
:10116000002C8BB800C010FF3BB9122FF110162FC6
:101170009B0D00C000C0002C3BB900C000C0002C7B
:101180008BB800C017FF3BB922816627889400C046
:1011900000C0002C3BB92111290D00C0002C8BB8D8
:1011A00000C016FF3BB908F42FEFE40FF51F00C095
:1011B00000C0002C3BB9E0FC620F00C0002C8BB8D3
:1011C00000C015FF3BB967958894E1FC620F00C031
:1011D00000C0002C3BB96795889400C0002C8BB8E8
:1011E00000C014FF3BB9E2FC620F6795889400C011
:1011F00000C0002C3BB9E3FC620F00C0002C8BB890
:1012000000C013FF3BB967958894E4FC620F00C0EF
:1012100000C0002C3BB96795889400C0002C8BB8A7
:1012200000C012FF3BB9E5FC620F6795889400C0CF
:1012300000C0002C3BB9E6FC620F00C0002C8BB84C
:1012400000C011FF3BB967958894E7FC620F00C0AE
:1012500000C0002C3BB96795889400C0002C8BB867
:1012600000C010FF3BB9122FE110162F919400C05F
:1012700000C0002C3BB99A0C00C000C08BB800C065
:1012800017FF3BB921816627889400C000C0002C5D
:101290003BB92111280F00C0002C8BB800C016FFED
:1012A0003BB908F42FEF8195889400C000C0002C52
:1012B0003BB970FD620F00C0002C8BB800C015FF59
:1012C0003BB96795889471FD620F00C000C0002C87
:1012D0003BB96795889400C0002C8BB800C014FF00
:1012E0003BB972FD620F6795889400C000C0002C66
:1012F0003BB973FD620F00C0002C8BB800C013FF18
:101300003BB96795889474FD620F00C000C0002C43
:101310003BB96795889400C0002C8BB800C012FFC1
:101320003BB975FD620F6795889400C000C0002C22
:101330003BB976FD620F00C0002C8BB800C011FFD6
:101340003BB96795889477FD620F00C000C0002C00
:101350003BB96795889400C0002C8BB800C010FF83
:101360003BB9122F7111162F8D0D00C000C0002C3B
:101370003BB9119709F086CE4A815B8120EE31E0BE
:10138000DA010E94C81DDC01CB0164E0B695A79587
:10139000979587956A95D1F730E020E0B901EAE9A1
:1013A0004E9F040E611D5E9F600D711D1124650F1F
:1013B000711D860F971FA11DB11D893E43E0940743
:1013C000A105B10508F434C0885E9340A109B109B4
:1013D00042E0B695A795979587954A95D1F747E04E
:1013E000849F080E211D949F200D311D1124290F6B
:1013F000311D6091510270E0860F971F280F391F31
:101400008091480490914904A0914A04B0914B0402
:10141000432F5527840F951FA11DB11D80934804AC
:1014200090934904A0934A04B0934B042093510233
:101430007894C201DF91CF911F910F91FF90EF90AF
:10144000DF90CF90BF90AF909F908F907F905F90F4
:101450004F900C945F05529A08954F925F927F923D
:101460008F929F92AF92BF92CF92DF92EF92FF92B4
:101470000F931F93CF93DF93EB010F962C010E94E4
:101480006905F8948A819B81181619060CF0CDC164
:10149000E881F9816BB1862E689483F83BB1377F80
:1014A0003BB9DA848F812D2D281B822F2F834F8506
:1014B000042E000C550BAA81BB817D85FC84EE8433
:1014C0007F5FF394E3949E819884B984AB84118107
:1014D000C12C6C2D0C2D2C2D2181112788942111CC
:1014E000280F08F42FEF8195889470FD120F17953F
:1014F000889471FD120F1795889472FD120F17953D
:10150000889473FD120F1795889474FD120F179528
:10151000889475FD120F1795889476FD120F179514
:10152000889477FD120F17958894622F7111612F9F
:101530008D0D162F002C8BB800C017FF3BB92081F2
:101540006627889400C000C0002C3BB92111290FE8
:1015500000C0002C8BB800C016FF3BB908F42FEF79
:101560009195889400C000C0002C3BB9F0FC620F3C
:1015700000C0002C8BB800C015FF3BB9679588945C
:10158000F1FC620F00C000C0002C3BB96795889445
:1015900000C0002C8BB800C014FF3BB9F2FC620FF6
:1015A0006795889400C000C0002C3BB9F3FC620F23
:1015B00000C0002C8BB800C013FF3BB9679588941E
:1015C000F4FC620F00C000C0002C3BB96795889402
:1015D00000C0002C8BB800C012FF3BB9F5FC620FB5
:1015E0006795889400C000C0002C3BB9F6FC620FE0
:1015F00000C0002C8BB800C011FF3BB967958894E0
:10160000F7FC620F00C000C0002C3BB967958894BE
:1016100000C0002C8BB800C010FF3BB9122FF11096
:10162000162F9B0D00C000C0002C3BB900C000C0AD
:10163000002C8BB800C017FF3BB922816627889425
:1016400000C000C0002C3BB92111290D00C0002CA6
:101650008BB800C016FF3BB908F42FEFE40FF51F5D
:1016600000C000C0002C3BB9E0FC620F00C0002CA1
:101670008BB800C015FF3BB967958894E1FC620FF9
:1016800000C000C0002C3BB96795889400C0002CB6
:101690008BB800C014FF3BB9E2FC620F67958894D9
:1016A00000C000C0002C3BB9E3FC620F00C0002C5E
:1016B0008BB800C013FF3BB967958894E4FC620FB8
:1016C00000C000C0002C3BB96795889400C0002C76
:1016D0008BB800C012FF3BB9E5FC620F6795889498
:1016E00000C000C0002C3BB9E6FC620F00C0002C1B
:1016F0008BB800C011FF3BB967958894E7FC620F77
:1017000000C000C0002C3BB96795889400C0002C35
:101710008BB800C010FF3BB9122FE110162F919427
:1017200000C000C0002C3BB99A0C00C000C08BB8B0
:1017300000C017FF3BB921816627889400C000C014
:10174000002C3BB92111280F00C0002C8BB800C021
:1017500016FF3BB908F42FEF8195889400C000C0B4
:10176000002C3BB970FD620F00C0002C8BB800C08C
:1017700015FF3BB96795889471FD620F00C000C0EA
:10178000002C3BB96795889400C0002C8BB800C032
:1017900014FF3BB972FD620F6795889400C000C0CA
:1017A000002C3BB973FD620F00C0002C8BB800C049
:1017B00013FF3BB96795889474FD620F00C000C0A9
:1017C000002C3BB96795889400C0002C8BB800C0F2
:1017D00012FF3BB975FD620F6795889400C000C089
:1017E000002C3BB976FD620F00C0002C8BB800C006
:1017F00011FF3BB96795889477FD620F00C000C068
:10180000002C3BB96795889400C0002C8BB800C0B1
:1018100010FF3BB9122F7111162F8D0D00C000C0A3
:10182000002C3BB9119709F086CE4A815B8120EEEE
:1018300031E0DA010E94C81DDC01CB0164E0B695FD
:10184000A795979587956A95D1F730E020E0B90183
:10185000EAE94E9F040E611D5E9F600D711D11240B
:10186000650F711D860F971FA11DB11D893E43E0B5
:101870009407A105B10508F434C0885E9340A1091E
:10188000B10942E0B695A795979587954A95D1F706
:1018900047E0849F080E211D949F200D311D1124C7
:1018A000290F311D6091510270E0860F971F280F9C
:1018B000391F8091480490914904A0914A04B09145
:1018C0004B04432F5527840F951FA11DB11D8093F5
:1018D000480490934904A0934A04B0934B04209386
:1018E00051027894C201DF91CF911F910F91FF9027
:1018F000EF90DF90CF90BF90AF909F908F907F90B0
:101900005F904F900C945F05539A08954F925F92A9
:101910007F928F929F92AF92BF92CF92DF92EF927F
:10192000FF920F931F93CF93DF93EB010F962C0140
:101930000E946905F8948A819B81181619060CF09B
:10194000CDC1E881F9816BB1862E689484F83BB1F2
:101950003F7E3BB9DA848F812D2D281B822F2F8368
:101960004F85042E000C550BAA81BB817D85FC841C
:10197000EE847F5FF394E3949E819884B984AB8472
:101980001181C12C6C2D0C2D2C2D218111278894B7
:101990002111280F08F42FEF8195889470FD120F04
:1019A0001795889471FD120F1795889472FD120F88
:1019B0001795889473FD120F1795889474FD120F74
:1019C0001795889475FD120F1795889476FD120F60
:1019D0001795889477FD120F17958894622F7111CF
:1019E000612F8D0D162F002C8BB800C017FF3BB94F
:1019F00020816627889400C000C0002C3BB92111CB
:101A0000290F00C0002C8BB800C016FF3BB908F4AA
:101A10002FEF9195889400C000C0002C3BB9F0FCDA
:101A2000620F00C0002C8BB800C015FF3BB9679552
:101A30008894F1FC620F00C000C0002C3BB9679590
:101A4000889400C0002C8BB800C014FF3BB9F2FC96
:101A5000620F6795889400C000C0002C3BB9F3FC6E
:101A6000620F00C0002C8BB800C013FF3BB9679514
:101A70008894F4FC620F00C000C0002C3BB967954D
:101A8000889400C0002C8BB800C012FF3BB9F5FC55
:101A9000620F6795889400C000C0002C3BB9F6FC2B
:101AA000620F00C0002C8BB800C011FF3BB96795D6
:101AB0008894F7FC620F00C000C0002C3BB967950A
:101AC000889400C0002C8BB800C010FF3BB9122FC7
:101AD000F110162F9B0D00C000C0002C3BB900C0B8
:101AE00000C0002C8BB800C017FF3BB922816627CD
:101AF000889400C000C0002C3BB92111290D00C002
:101B0000002C8BB800C016FF3BB908F42FEFE40F90
:101B1000F51F00C000C0002C3BB9E0FC620F00C004
:101B2000002C8BB800C015FF3BB967958894E1FC89
:101B3000620F00C000C0002C3BB96795889400C0BC
:101B4000002C8BB800C014FF3BB9E2FC620F679514
:101B5000889400C000C0002C3BB9E3FC620F00C0B9
:101B6000002C8BB800C013FF3BB967958894E4FC48
:101B7000620F00C000C0002C3BB96795889400C07C
:101B8000002C8BB800C012FF3BB9E5FC620F6795D3
:101B9000889400C000C0002C3BB9E6FC620F00C076
:101BA000002C8BB800C011FF3BB967958894E7FC07
:101BB000620F00C000C0002C3BB96795889400C03C
:101BC000002C8BB800C010FF3BB9122FE110162F6C
:101BD000919400C000C0002C3BB99A0C00C000C01A
:101BE0008BB800C017FF3BB921816627889400C0DD
:101BF00000C0002C3BB92111280F00C0002C8BB86D
:101C000000C016FF3BB908F42FEF8195889400C0FF
:101C100000C0002C3BB970FD620F00C0002C8BB8D7
:101C200000C015FF3BB96795889471FD620F00C035
:101C300000C0002C3BB96795889400C0002C8BB87D
:101C400000C014FF3BB972FD620F6795889400C015
:101C500000C0002C3BB973FD620F00C0002C8BB894
:101C600000C013FF3BB96795889474FD620F00C0F4
:101C700000C0002C3BB96795889400C0002C8BB83D
:101C800000C012FF3BB975FD620F6795889400C0D4
:101C900000C0002C3BB976FD620F00C0002C8BB851
:101CA00000C011FF3BB96795889477FD620F00C0B3
:101CB00000C0002C3BB96795889400C0002C8BB8FD
:101CC00000C010FF3BB9122F7111162F8D0D00C0EF
:101CD00000C0002C3BB9119709F086CE4A815B8188
:101CE00020EE31E0DA010E94C81DDC01CB0164E086
:101CF000B695A795979587956A95D1F730E020E03E
:101D0000B901EAE94E9F040E611D5E9F600D711DD1
:101D10001124650F711D860F971FA11DB11D893EEE
:101D200043E09407A105B10508F434C0885E9340F0
:101D3000A109B10942E0B695A795979587954A956F
:101D4000D1F747E0849F080E211D949F200D311D7F
:101D50001124290F311D6091510270E0860F971FE9
:101D6000280F391F8091480490914904A0914A049A
:101D7000B0914B04432F5527840F951FA11DB11D12
:101D80008093480490934904A0934A04B0934B0471
:101D9000209351027894C201DF91CF911F910F914E
:101DA000FF90EF90DF90CF90BF90AF909F908F907B
:101DB0007F905F904F900C945F05549A08954F92D6
:101DC0005F927F928F929F92AF92BF92CF92DF925B
:101DD000EF92FF920F931F93CF93DF93EB010F9638
:101DE0002C010E946905F8948A819B8118161906B6
:101DF0000CF0CDC1E881F9816BB1862E689485F82D
:101E00003BB13F7D3BB9DA848F812D2D281B822F7A
:101E10002F834F85042E000C550BAA81BB817D8535
:101E2000FC84EE847F5FF394E3949E819884B9846C
:101E3000AB841181C12C6C2D0C2D2C2D21811127EF
:101E400088942111280F08F42FEF8195889470FD54
:101E5000120F1795889471FD120F1795889472FDD3
:101E6000120F1795889473FD120F1795889474FDBF
:101E7000120F1795889475FD120F1795889476FDAB
:101E8000120F1795889477FD120F17958894622F7B
:101E90007111612F8D0D162F002C8BB800C017FF0C
:101EA0003BB920816627889400C000C0002C3BB954
:101EB0002111290F00C0002C8BB800C016FF3BB9C0
:101EC00008F42FEF9195889400C000C0002C3BB916
:101ED000F0FC620F00C0002C8BB800C015FF3BB9AE
:101EE00067958894F1FC620F00C000C0002C3BB9DC
:101EF0006795889400C0002C8BB800C014FF3BB9D4
:101F0000F2FC620F6795889400C000C0002C3BB9BA
:101F1000F3FC620F00C0002C8BB800C013FF3BB96C
:101F200067958894F4FC620F00C000C0002C3BB998
:101F30006795889400C0002C8BB800C012FF3BB995
:101F4000F5FC620F6795889400C000C0002C3BB977
:101F5000F6FC620F00C0002C8BB800C011FF3BB92B
:101F600067958894F7FC620F00C000C0002C3BB955
:101F70006795889400C0002C8BB800C010FF3BB957
:101F8000122FF110162F9B0D00C000C0002C3BB982
:101F900000C000C0002C8BB800C017FF3BB92281E5
:101FA0006627889400C000C0002C3BB92111290D80
:101FB00000C0002C8BB800C016FF3BB908F42FEF0F
:101FC000E40FF51F00C000C0002C3BB9E0FC620F1D
:101FD00000C0002C8BB800C015FF3BB967958894F2
:101FE000E1FC620F00C000C0002C3BB967958894EB
:101FF00000C0002C8BB800C014FF3BB9E2FC620F9C
:102000006795889400C000C0002C3BB9E3FC620FC8
:1020100000C0002C8BB800C013FF3BB967958894B3
:10202000E4FC620F00C000C0002C3BB967958894A7
:1020300000C0002C8BB800C012FF3BB9E5FC620F5A
:102040006795889400C000C0002C3BB9E6FC620F85
:1020500000C0002C8BB800C011FF3BB96795889475
:10206000E7FC620F00C000C0002C3BB96795889464
:1020700000C0002C8BB800C010FF3BB9122FE1103C
:10208000162F919400C000C0002C3BB99A0C00C0E0
:1020900000C08BB800C017FF3BB921816627889428
:1020A00000C000C0002C3BB92111280F00C0002C3B
:1020B0008BB800C016FF3BB908F42FEF81958894C8
:1020C00000C000C0002C3BB970FD620F00C0002CA6
:1020D0008BB800C015FF3BB96795889471FD620FFE
:1020E00000C000C0002C3BB96795889400C0002C4C
:1020F0008BB800C014FF3BB972FD620F67958894DE
:1021000000C000C0002C3BB973FD620F00C0002C62
:102110008BB800C013FF3BB96795889474FD620FBC
:1021200000C000C0002C3BB96795889400C0002C0B
:102130008BB800C012FF3BB975FD620F679588949C
:1021400000C000C0002C3BB976FD620F00C0002C1F
:102150008BB800C011FF3BB96795889477FD620F7B
:1021600000C000C0002C3BB96795889400C0002CCB
:102170008BB800C010FF3BB9122F7111162F8D0DB7
:1021800000C000C0002C3BB9119709F086CE4A81EF
:102190005B8120EE31E0DA010E94C81DDC01CB0139
:1021A00064E0B695A795979587956A95D1F730E045
:1021B00020E0B901EAE94E9F040E611D5E9F600DAB
:1021C000711D1124650F711D860F971FA11DB11D73
:1021D000893E43E09407A105B10508F434C0885E48
:1021E0009340A109B10942E0B695A79597958795C7
:1021F0004A95D1F747E0849F080E211D949F200D3A
:10220000311D1124290F311D6091510270E0860F9C
:10221000971F280F391F8091480490914904A0917D
:102220004A04B0914B04432F5527840F951FA11DDD
:10223000B11D8093480490934904A0934A04B0933D
:102240004B04209351027894C201DF91CF911F91EA
:102250000F91FF90EF90DF90CF90BF90AF909F9045
:102260008F907F905F904F900C945F05559A0895E2
:102270006F927F928F92CF92DF92EF92FF920F93A5
:102280001F93CF93DF93CDB7DEB762970FB6F89465
:10229000DEBF0FBECDBF6C017A013801822EDC019A
:1022A0001C962C91CA0157FF04C088279927841BCC
:1022B000950B7A8369839C838B839E838D836D8644
:1022C0007E868F86213049F5CE0101960E94220537
:1022D00083E0888B1A8A198AF7FE02C08DEF888BFB
:1022E000D601ED91FC910484F585E02DBE016F5F70
:1022F0007F4FC601099562960FB6F894DEBF0FBEF8
:10230000CDBFDF91CF911F910F91FF90EF90DF90A4
:10231000CF908F907F906F9008951C861B861A86B1
:10232000198618861F82D4CFEF92FF920F931F93C6
:10233000CF93DF93CDB7DEB762970FB6F894DEBFC9
:102340000FBECDBF7C01DC011C968C917A83698322
:102350005C834B835E834D830D871E872F8781307F
:10236000F9F4CE0101960E942205188A1A8A198A68
:10237000D701ED91FC910484F585E02DBE016F5FDE
:102380007F4FC701099562960FB6F894DEBF0FBE66
:10239000CDBFDF91CF911F910F91FF90EF900895E6
:1023A0001C861B861A86198618861F82DECF90E04F
:1023B00080E00895FC018585968508950F931F930D
:1023C000CF93DF9300D01F92CDB7DEB7AB01198258
:1023D0001A821B82DC01ED91FC910190F081E02DCD
:1023E00000E010E020E0BE016F5F7F4F09950F9085
:1023F0000F900F90DF91CF911F910F910895FC01E5
:102400008EE091E091838083138212828FEF868326
:102410008783808781878287838781E08487168688
:102420001586158214828091520490915304892B51
:1024300021F4F0935304E0935204A0914602B0912A
:102440004702109721F01596FC93EE931497F093A2
:102450004702E09346020895FC0101900020E9F74D
:102460003197AF01481B590BBC0181E794E00C94F4
:102470001E038F929F92AF92BF920F931F93CF93A1
:10248000DF93CDB7DEB7A1970FB6F894DEBF0FBECE
:10249000CDBF19A2423008F44AE08E010F5D1F4FF4
:1024A000842E912CB12CA12CA50194010E94871D92
:1024B000E62FB901CA01EA30F4F4E05DD801EE93E9
:1024C0008D01232B242B252B79F790E080E01097AA
:1024D00019F0CD010E942C12A1960FB6F894DEBF20
:1024E0000FBECDBFDF91CF911F910F91BF90AF90E5
:1024F0009F908F900895E95CE1CF0F931F93462F33
:1025000090E0FC01E255FF4F6491FC01E656FF4F5D
:10251000E4914111462FF0E0EE0FFF1FE057FF4F0F
:102520008591949100E412E42FE030E00E940F16B0
:10253000611571058105910529F06F5F7F4F8F4F00
:102540009F4F9F701F910F9108950F931F93CF93EB
:102550008C01C62F0E9438046C2F6460C8010E9451
:1025600038046C2F6B7FC8010E94380483EC90E024
:102570000197F1F7CF911F910F9108950F931F933A
:10258000CF93DF938C01D62FC42F607F642B0E94E2
:10259000A51280E1D89FB00111246C2BC801DF91F6
:1025A000CF911F910F910C94A512CF93DF93CDB7CC
:1025B000DEB728970FB6F894DEBF0FBECDBF98E008
:1025C000E2E0F1E0DE01119601900D929A95E1F7BB
:1025D00090917A04961710F46FEF690F262F30E070
:1025E000220F331F41E050E04C0F5D1F240F351FB9
:1025F000F9016081680F606840E081E794E0289607
:102600000FB6F894DEBF0FBECDBFDF91CF910C9413
:10261000BE1241E00E94BE1281E090E008954F9208
:102620005F926F927F928F929F92AF92BF92CF9262
:10263000DF92EF92FF920F931F93CF936B017C0178
:10264000742EAC019B010E945E1D882399F082E9E3
:1026500091E0CF911F910F91FF90EF90DF90CF907D
:10266000BF90AF909F908F907F906F905F904F90B2
:102670000C942C1246015701E894B7F82FEF3FEF66
:102680004FE75FE7C501B4010E945E1D81110DC0D7
:102690002FEF3FEF4FE75FE7C501B4010E948D1BAD
:1026A00018161CF486E991E0D4CF2FEF3FEF4FE7E7
:1026B0005FE4C701B6010E94EC1C18161CF48AE9FD
:1026C00091E0C7CF2FEF3FEF4FE75FECC701B601B7
:1026D0000E948D1B87FDF3CF20E030E0A901C701E8
:1026E000B6010E948D1B10E000E087FF0CC041E0A6
:1026F0006DE281E794E00E94BE12F7FAF094F7F8D9
:10270000F09401E010E0C0E060E070E080E09FE362
:102710007C1641F020E030E040E251E40E94921B40
:10272000CF5FF6CFA70196010E94211B4B015C01F0
:102730000E940B1C2B013C014AE00E943912080F39
:10274000191FCC23C9F1C301B2010E943A1C9B019D
:10275000AC01C501B4010E94201B4B015C0141E0AA
:102760006EE281E794E00E94BE120F5F1F4FC150DE
:1027700018F120E030E040E251E4C501B4010E94CC
:10278000F11C2B013C010E940B1C4B01B12CA12C14
:102790004AE0C501B4010E943912080F191FC50192
:1027A000B4010E943A1C9B01AC01C301B2010E941A
:1027B000201B4B015C01DBCFC801CF911F910F9112
:1027C000FF90EF90DF90CF90BF90AF909F908F9051
:1027D0007F906F905F904F900895EF92FF920F93CC
:1027E0001F93CF93DF938C01C0E07801D0E06C2F72
:1027F0008D2F0E94D512F70161917F0141E081E7A1
:1028000094E00E94BE12DF5FD43189F70C5E1F4F47
:10281000CF5FC43051F7DF91CF911F910F91FF909F
:10282000EF9008950E94031E85ED8093BC00809177
:10283000DF029091E002A091E102B091E2020796DE
:10284000A11DB11D23E0B695A795979587952A956B
:10285000D1F72091BC0024FD03C01092DD02089541
:102860004091DF025091E0026091E1027091E2023A
:10287000452B462B472B69F30097A105B10541F085
:102880002AE22A95F1F700C00197A109B109E1CF29
:102890008091DE020C9491031F920F920FB60F925B
:1028A00011242F933F938F939F93AF93BF93809166
:1028B000480490914904A0914A04B0914B0430918E
:1028C000430423E0230F2D3758F50196A11DB11DB8
:1028D000209343048093480490934904A0934A04AE
:1028E000B0934B048091440490914504A091460418
:1028F000B09147040196A11DB11D809344049093AB
:102900004504A0934604B0934704BF91AF919F91B3
:102910008F913F912F910F900FBE0F901F901895A0
:1029200026E8230F0296A11DB11DD2CF1F920F9250
:102930000FB60F9211242F933F934F935F936F9392
:102940007F938F939F93AF93BF93EF93FF93809168
:10295000B900887F803609F44AC0F0F5883209F45E
:10296000A7C018F5803109F49BC0B8F4882309F496
:10297000F9C0883009F494C0FF91EF91BF91AF91F5
:102980009F918F917F916F915F914F913F912F9187
:102990000F900FBE0F901F901895883109F488C0D2
:1029A000803251F78093DB0214C0803409F49DC05B
:1029B00040F48033B9F38833F9F68093DB0285EC79
:1029C000B0C0803509F485C0883509F496C08834D4
:1029D00099F60E941414D0CF883909F48CC038F5C8
:1029E000883729F050F4883611F0803729F683E0D3
:1029F0008093DD021092B60257C0883809F47BC07C
:102A0000803919F0803809F0B7CF8091B602803252
:102A100008F071C0E091B60281E08E0F8093B6029B
:102A20008091BB00F0E0EA56FD4F80833DC0803BC3
:102A300039F0E0F4803A09F479C0883A09F09CCF83
:102A400084E08093DD021092950210929402E0914E
:102A50008403F091850309958091940281110FC040
:102A600081E0809394021092740209C0803C09F4C2
:102A7000A6CF883C09F4A3CF883B09F07DCFE09135
:102A8000950281E08E0F80939502F0E0EC58FD4FA7
:102A900080818093BB00909195028091940229C01F
:102AA0008091B8028093BB0085EC8093BC0064CF1A
:102AB0009091DA028091D902981758F5E091DA02E4
:102AC00081E08E0F8093DA02F0E0E754FD4F8081C1
:102AD000E9CFE091DA0281E08E0F8093DA028091F3
:102AE000BB00F0E0E754FD4F80839091DA028091C3
:102AF000D9029817C8F285E8D8CFE091DA0281E0D0
:102B00008E0F8093DA028091BB00F0E0E754FD4F16
:102B100080838091DC0281115CCF81E08093B702D9
:102B200084EA8093BC001092DD0226CF85EC80936E
:102B3000BC001092DD028091B602803230F4E09148
:102B4000B602F0E0EA56FD4F10826091B60270E0E6
:102B5000E0918203F091830386E992E00995109257
:102B6000B6020ACF1092DB0234CF1F920F920FB63B
:102B70000F9211248F939F93AF93BF9388EE9DEF95
:102B8000909385008093840080914F029091500231
:102B900001969093500280934F0280914F02909142
:102BA00050020597D1F41092500210924F0280917A
:102BB000EA0391E089278093EA0380913B04909196
:102BC0003C04A0913D04B0913E0480934B0290934D
:102BD0004C02A0934D02B0934E0280914902909115
:102BE0004A02019690934A028093490280914902D9
:102BF00090914A020A9751F410924A0210924902A7
:102C00008091480291E0892780934802BF91AF915B
:102C10009F918F910F900FBE0F901F901895CF929C
:102C2000DF92EF92FF920F931F93E82FF92F05C0C9
:102C3000015011092109310961F1908196239417FE
:102C4000B9F305C0015011092109310911F1908131
:102C500096239413F7CFC12CD12CE12CF12C0AC070
:102C60008FEFC81AD80AE80AF80A0C151D052E05B8
:102C70003F0579F080818623841791F36C2D7D2D9B
:102C80008E2D9F2D1F910F91FF90EF90DF90CF9091
:102C9000089560E070E080E090E01F910F91FF9058
:102CA000EF90DF90CF900895E8E5F4E08FEF808318
:102CB00012821182148613868FEF9FEFDC018783C7
:102CC0009087A187B287E5E6F4E01382128288EE4E
:102CD00093E0A0E0B0E084839583A683B78388E780
:102CE00091E091838083E1E7F4E0138212828AE825
:102CF00091E09183808380E2848384E1808784E013
:102D00008187128688E083870895789484B58260ED
:102D100084BD84B5816084BD85B5826085BD85B57F
:102D2000816085BD80916E00816080936E001092FD
:102D30008100809181008260809381008091810078
:102D40008160809381008091800081608093800009
:102D50008091B10084608093B1008091B000816067
:102D60008093B00080917A00846080937A00809193
:102D70007A00826080937A0080917A0081608093EB
:102D80007A0080917A00806880937A001092C10066
:102D900062E089E00E94500162E088E00E945001F8
:102DA00062E087E00E94500162E08AE00E945001E8
:102DB00062E08BE00E94500162E08CE00E945001D2
:102DC00062E08DE00E94500180911603811111C0D4
:102DD00085E093E00E94FF111092150310921403F6
:102DE0008EE191E0909306038093050381E0809348
:102DF000160340E150E06AE873E085E093E00E944A
:102E00008C0080912F03811111C08EE193E00E940C
:102E1000FF1110922E0310922D0380E391E0909306
:102E20001F0380931E0381E080932F0340E150E055
:102E30006AEB73E08EE193E00E948C00809148037E
:102E4000811111C087E393E00E94FF1110924703A4
:102E50001092460382E491E0909338038093370305
:102E600081E08093480348E050E06BE174E087E341
:102E700093E00E948C0080916103811111C080E574
:102E800093E00E94FF111092600310925F0384E5AB
:102E900091E0909351038093500381E0809361030C
:102EA00048E050E063E074E080E593E00E948C002D
:102EB00080917A03811111C089E693E00E94FF118D
:102EC000109279031092780386E691E090936A035A
:102ED0008093690381E080937A0348E050E06BEED1
:102EE00073E089E693E00E948C00CAE8D3E0188280
:102EF00019821A820E94C301239623E0CA3BD2079B
:102F0000B1F761E086E00E94500160E086E00E9437
:102F10002201F8941092800084E08093810088EE72
:102F20009DEF909385008093840080916F00816075
:102F300080936F00789461E081E10E94500160E02D
:102F400080E10E9450011092890310928803109230
:102F50008703109286030E9473038CE193E09093A1
:102F60008503809384038DE193E0909383038093A2
:102F700082031092760480917A04823018F098E0EF
:102F80009093760490917B04992339F0813029F451
:102F90008091760484608093760462E370E080E040
:102FA00090E00E94EA0260917C0481E794E00E9434
:102FB000380468EE73E080E090E00E94EA0260E38B
:102FC00081E794E00E94A512CBE4D6E4CE010197FC
:102FD000F1F760E381E794E00E94A5122197F1F7F1
:102FE00060E381E794E00E94A51283E592E00197F7
:102FF000F1F760E281E794E00E94A5126091760407
:10300000606240E081E794E00E94BE1284E0809319
:10301000770440E06CE081E794E00E94BE1240E05B
:1030200061E081E794E00E94BE12CBE3DFE1CE01D4
:103030000197F1F782E08093780440E066E081E751
:1030400094E00E94BE1240E062E081E794E00E94BA
:10305000BE122197F1F78EE892E7A3EABDE38093D1
:10306000370490933804A0933904B0933A048EE95E
:1030700091E00E94ED138BE00E94F9000197D9F3D3
:103080008FEE91E00E94ED13DFEF0AEE13E083E094
:10309000E82E84E0F82E9BE1C92E94E0D92E20E0A2
:1030A000222E20E0322ECFEF8EE00E948C019093F2
:1030B00001018093000189E00E94F900892B09F445
:1030C00042C0809100019091010180399140DCF172
:1030D000EAE8F3E0108211821282339683E0EA3B41
:1030E000F807C1F70E94C30187E00E94F900892B0D
:1030F00009F441C08091000190910101893592400D
:10310000D4F5EAEBF3E0108211821282339683E069
:10311000EA3EF807C1F70E94C30168E270E080E070
:1031200090E00E94EA0288E00E94F900892BD1F128
:10313000EBEEF3E0108211821282339684E0E330EA
:10314000F807C1F738C08091EA03EAE8F3E0882382
:1031500049F0D083D1831282339623E0EA3BF20711
:10316000C1F7C0CF108211821282339683E0EA3B0E
:10317000F807C1F7B7CF8091EA03EAEBF3E08823C1
:1031800049F0D083D1831282339623E0EA3EF207DE
:10319000C1F7C1CF10821182128233960E171F071A
:1031A000C9F7B9CFEBEEF3E0D083118212823396E8
:1031B000EE16FF06C9F70E94C30168E270E080E0E6
:1031C00090E00E94EA028FE00E948C015C018AE09C
:1031D0000E94F900892B71F461E086E00E942201CF
:1031E000E3E0F4E0D083118212823396CE16DF063C
:1031F000C9F712C025E6A216B10474F760E086E0B4
:103200000E942201E3E0F4E01082118212823396E0
:1032100084E0EB31F807C1F70E94C30168E270E077
:1032200080E090E00E94EA0260E081E10E942201D9
:1032300083E090E00197F1F761E081E10E942201D3
:1032400083E290E00197F1F760E081E10E942201C2
:1032500061E080E10E947D120E943A1C26E933E47D
:103260004BE05DE30E94F11C20E030E040EA51E4D5
:103270000E94921B0E94041C7093420460934104BC
:103280006155710964317105C0F5C0931B0410923A
:103290001C0410921D04C0931E0410921F0410926F
:1032A0002004109221041092220410922304109200
:1032B00024041092250410922604109227041092E0
:1032C00028041092290410922A0410922B041092C0
:1032D0002C0410922D0410922E0410922F041092A0
:1032E000300410923104109232040E94C30168E24B
:1032F00070E080E090E00E94EA02809141049091A9
:103300004204875491090A97C0F5C0931B04109298
:103310001C0410921D04C0931E0410921F041092EE
:103320002004C09321041092220410922304C0931D
:10333000240410922504109226041092270410925F
:1033400028041092290410922A0410922B0410923F
:103350002C0410922D0410922E0410922F0410921F
:10336000300410923104109232040E94C30168E2CA
:1033700070E080E090E00E94EA0280914104909128
:103380004204C3970A97C0F5C0931B0410921C0413
:1033900010921D04C0931E0410921F04109220046A
:1033A000C09321041092220410922304C093240499
:1033B0001092250410922604C0932704109228042A
:1033C00010922904C0932A0410922B0410922C040A
:1033D00010922D0410922E0410922F04109230049B
:1033E00010923104109232040E94C30168E270E02E
:1033F00080E090E00E94EA028091410490914204B2
:10340000C397C4F5C0931B0410921C0410921D04B2
:10341000C0931E0410921F0410922004C093210434
:103420001092220410922304C093240410922504C5
:1034300010922604C09327041092280410922904A5
:10344000C0932A0410922B0410922C04C0932D04D4
:1034500010922E0410922F04C09330041092310465
:10346000109232040E94C30168E270E080E090E0B4
:103470000E94EA02809141049091420485369105B0
:10348000C4F110921B0410921C0410921D0410929F
:103490001E0410921F041092200410922104109216
:1034A00022041092230410922404109225041092F6
:1034B00026041092270410922804109229041092D6
:1034C0002A0410922B0410922C0410922D041092B6
:1034D0002E0410922F041092300410923104109296
:1034E00032040E94C30168E270E080E090E00E9434
:1034F000EA0280E00E94F9005C01019759F5809191
:103500003F0490914004892B29F520913704309194
:1035100038044091390450913A0460913B04709111
:103520003C0480913D0490913E040E94211B2B019C
:103530003C0140923B0450923C0460923D047092E6
:103540003E0461E08AE00E94D51243E0C301B2016B
:103550000E940F13B0924004A0923F0461E080E00B
:103560000E947D12709336046093350460E080E021
:103570000E947D122091350430913604620F731F32
:10358000072E000C880B990B0E943C1C9B01AC0180
:1035900060E074E284E799E40E94921B23EC35EF2B
:1035A00048EC50E40E94F11C26EF38E24CE95EE35F
:1035B0000E94F11C0E94041C4B0170933404609320
:1035C000330460E08AE00E94D5122CE3289DC001FC
:1035D000299D900D112468EE73E00E94731D072E43
:1035E000000C880B990B43E00E943912A090410413
:1035F000B090420462E085E6A816B10474F08DE054
:103600000E94D51280E492E00E942C122114310411
:1036100009F44ACD0E94000047CD8DE00E94D512EA
:10362000B501BB0C880B990B0E943C1C20E030E0DC
:1036300048EC52E40E94921B42E00E940F13E6CF36
:103640005058BB27AA270E94381B0C94B21C0E941A
:10365000A41C38F00E94AB1C20F039F49F3F19F4F1
:1036600026F40C94A11C0EF4E095E7FB0C949B1C33
:10367000E92F0E94C31C58F3BA1762077307840727
:10368000950720F079F4A6F50C94E51C0EF4E0956E
:103690000B2EBA2FA02D0B01B90190010C01CA010C
:1036A000A0011124FF27591B99F0593F50F4503EB7
:1036B00068F11A16F040A22F232F342F4427585FA9
:1036C000F3CF469537952795A795F0405395C9F7C1
:1036D0007EF41F16BA0B620B730B840BBAF0915079
:1036E000A1F0FF0FBB1F661F771F881FC2F70EC018
:1036F000BA0F621F731F841F48F4879577956795EB
:10370000B795F7959E3F08F0B0CF9395880F08F0D6
:103710009927EE0F9795879508950E94771C08F4D6
:1037200081E008950E94A61B0C94B21C0E94AB1C61
:1037300058F00E94A41C40F029F45F3F29F00C943B
:103740009B1C51110C94E61C0C94A11C0E94C31CE0
:1037500068F39923B1F3552391F3951B550BBB27C0
:10376000AA2762177307840738F09F5F5F4F220F05
:10377000331F441FAA1FA9F335D00E2E3AF0E0E8FC
:1037800032D091505040E695001CCAF72BD0FE2F46
:1037900029D0660F771F881FBB1F261737074807DA
:1037A000AB07B0E809F0BB0B802DBF01FF27935892
:1037B0005F4F3AF09E3F510578F00C949B1C0C949F
:1037C000E61C5F3FE4F3983ED4F3869577956795C2
:1037D000B795F7959F5FC9F7880F911D96958795C7
:1037E00097F90895E1E0660F771F881FBB1F6217E6
:1037F00073078407BA0720F0621B730B840BBA0BA4
:10380000EE1F88F7E09508950E940B1C6894B11193
:103810000C94E61C08950E94CB1C88F09F5798F0EA
:10382000B92F9927B751B0F0E1F0660F771F881FC5
:10383000991F1AF0BA95C9F714C0B13091F00E94DF
:10384000E51CB1E008950C94E51C672F782F8827BC
:10385000B85F39F0B93FCCF3869577956795B39506
:10386000D9F73EF490958095709561957F4F8F4F75
:103870009F4F0895E89409C097FB3EF4909580957A
:10388000709561957F4F8F4F9F4F9923A9F0F92F26
:1038900096E9BB279395F695879577956795B795A4
:1038A000F111F8CFFAF4BB0F11F460FF1BC06F5F8A
:1038B0007F4F8F4F9F4F16C0882311F096E911C09C
:1038C000772321F09EE8872F762F05C0662371F0BD
:1038D00096E8862F70E060E02AF09A95660F771FD1
:1038E000881FDAF7880F9695879597F90895990FAD
:1038F0000008550FAA0BE0E8FEEF16161706E807BA
:10390000F907C0F012161306E407F50798F0621BDA
:10391000730B840B950B39F40A2661F0232B242BAF
:10392000252B21F408950A2609F4A140A6958FEFCE
:10393000811D811D089597F99F6780E870E060E020
:1039400008959FEF80EC089500240A941616170638
:1039500018060906089500240A9412161306140680
:1039600005060895092E0394000C11F4882352F0E3
:10397000BB0F40F4BF2B11F460FF04C06F5F7F4F9B
:103980008F4F9F4F089557FD9058440F551F59F082
:103990005F3F71F04795880F97FB991F61F09F3F3C
:1039A00079F087950895121613061406551FF2CF65
:1039B0004695F1DF08C0161617061806991FF1CFB5
:1039C00086957105610508940895E894BB276627DC
:1039D0007727CB0197F908950E94771C08F48FEFA1
:1039E00008950E94041D0C94B21C0E94A41C38F07F
:1039F0000E94AB1C20F0952311F00C949B1C0C949E
:103A0000A11C11240C94E61C0E94C31C70F3959F0A
:103A1000C1F3950F50E0551F629FF001729FBB27C5
:103A2000F00DB11D639FAA27F00DB11DAA1F649F61
:103A30006627B00DA11D661F829F2227B00DA11D14
:103A4000621F739FB00DA11D621F839FA00D611D9A
:103A5000221F749F3327A00D611D231F849F600DBB
:103A6000211D822F762F6A2F11249F5750409AF0E4
:103A7000F1F088234AF0EE0FFF1FBB1F661F771F70
:103A8000881F91505040A9F79E3F510580F00C943B
:103A90009B1C0C94E61C5F3FE4F3983ED4F38695A0
:103AA00077956795B795F795E7959F5FC1F7FE2BDB
:103AB000880F911D9695879597F908950E94771C18
:103AC000880B990B0895DB018F939F930E94CF1D64
:103AD000BF91AF91A29F800D911DA39F900DB29FAA
:103AE000900D1124089597FB072E16F4009407D02B
:103AF00077FD09D00E94DA1D07FC05D03EF49095B1
:103B000081959F4F0895709561957F4F0895A1E22B
:103B10001A2EAA1BBB1BFD010DC0AA1FBB1FEE1F47
:103B2000FF1FA217B307E407F50720F0A21BB30B92
:103B3000E40BF50B661F771F881F991F1A9469F70E
:103B400060957095809590959B01AC01BD01CF016A
:103B50000895052E97FB1EF400940E94C01D57FD8A
:103B600007D00E94871D07FC03D04EF40C94C01DA3
:103B700050954095309521953F4F4F4F5F4F089599
:103B800090958095709561957F4F8F4F9F4F0895C9
:103B90000E94F41DB7FF0895821B930B08950E94A5
:103BA000F41DA59F900DB49F900DA49F800D911DB5
:103BB00011240895AA1BBB1B51E107C0AA1FBB1FFC
:103BC000A617B70710F0A61BB70B881F991F5A95A9
:103BD000A9F780959095BC01CD010895EE0FFF1FC8
:103BE0000590F491E02D0994A29FB001B39FC0010C
:103BF000A39F700D811D1124911DB29F700D811D19
:103C00001124911D089581E090E0F8940C94081E11
:103C1000F894FFCF000200004000140054000000A0
:103C20000000121412141214DE11DA11D711000060
:103C3000000094113811D207DE11DA11CF07780590
:103C400000000000941138112B0ADE11DA11CF07A1
:103C5000D4070000000094113811840CDE11DA1131
:103C6000CF072D0A0000000094113811DD0EDE117F
:103C7000DA11CF07860C00000000941138113611BC
:103C8000DE11DA11CF07DF0E000000000904DC03AB
:103C90001F05B203D503C203B303000000000913DC
:103CA0001E031F054B036E616E00696E66006F7622
:103CB00066002050524F4945435420444520444912
:103CC000504C4F4D412020202020484F4455542037
:103CD00052414C554341202020202043414C435524
:103CE0004C41544F5220444520424F524420202002
:103CF00050454E5452552042494349434C45544146
:103D0000202000566974657A613A20202020202006
:103D10002020204B6D2F6844697374616E74613A82
:103D2000202020202020204B6D2020446973742EF9
:103D30002073706174653A2020202020206D20546B
:103D4000696D703A2020206820206D696E202073F4
:0A3D5000656320002D2D2D2D0000CD
:107E0000112484B714BE81FFF0D085E080938100F7
:107E100082E08093C00088E18093C10086E0809377
:107E2000C20080E18093C4008EE0C9D0259A86E02C
:107E300020E33CEF91E0309385002093840096BBD3
:107E4000B09BFECF1D9AA8958150A9F7CC24DD24C4
:107E500088248394B5E0AB2EA1E19A2EF3E0BF2EE7
:107E6000A2D0813461F49FD0082FAFD0023811F036
:107E7000013811F484E001C083E08DD089C08234E0
:107E800011F484E103C0853419F485E0A6D080C0E4
:107E9000853579F488D0E82EFF2485D0082F10E0AE
:107EA000102F00270E291F29000F111F8ED06801E7
:107EB0006FC0863521F484E090D080E0DECF843638
:107EC00009F040C070D06FD0082F6DD080E0C81688
:107ED00080E7D80618F4F601B7BEE895C0E0D1E017
:107EE00062D089930C17E1F7F0E0CF16F0E7DF06D8
:107EF00018F0F601B7BEE89568D007B600FCFDCFD4
:107F0000A601A0E0B1E02C9130E011968C91119780
:107F100090E0982F8827822B932B1296FA010C0160
:107F200087BEE89511244E5F5F4FF1E0A038BF0790
:107F300051F7F601A7BEE89507B600FCFDCF97BE46
:107F4000E89526C08437B1F42ED02DD0F82E2BD052
:107F50003CD0F601EF2C8F010F5F1F4F84911BD097
:107F6000EA94F801C1F70894C11CD11CFA94CF0C13
:107F7000D11C0EC0853739F428D08EE10CD085E9AC
:107F80000AD08FE07ACF813511F488E018D01DD067
:107F900080E101D065CF982F8091C00085FFFCCF94
:107FA0009093C60008958091C00087FFFCCF809118
:107FB000C00084FD01C0A8958091C6000895E0E648
:107FC000F0E098E1908380830895EDDF803219F02E
:107FD00088E0F5DFFFCF84E1DECF1F93182FE3DFCA
:107FE0001150E9F7F2DF1F91089580E0E8DFEE27F6
:047FF000FF270994CA
:027FFE00040479
:00000001FF
